{
  "_format": "hh-sol-artifact-1",
  "contractName": "BuyMyRoom",
  "sourceName": "contracts/BuyMyRoom.sol",
  "abi": [
    {
      "inputs": [],
      "stateMutability": "nonpayable",
      "type": "constructor"
    },
    {
      "inputs": [
        {
          "internalType": "address",
          "name": "sender",
          "type": "address"
        },
        {
          "internalType": "uint256",
          "name": "tokenId",
          "type": "uint256"
        },
        {
          "internalType": "address",
          "name": "owner",
          "type": "address"
        }
      ],
      "name": "ERC721IncorrectOwner",
      "type": "error"
    },
    {
      "inputs": [
        {
          "internalType": "address",
          "name": "operator",
          "type": "address"
        },
        {
          "internalType": "uint256",
          "name": "tokenId",
          "type": "uint256"
        }
      ],
      "name": "ERC721InsufficientApproval",
      "type": "error"
    },
    {
      "inputs": [
        {
          "internalType": "address",
          "name": "approver",
          "type": "address"
        }
      ],
      "name": "ERC721InvalidApprover",
      "type": "error"
    },
    {
      "inputs": [
        {
          "internalType": "address",
          "name": "operator",
          "type": "address"
        }
      ],
      "name": "ERC721InvalidOperator",
      "type": "error"
    },
    {
      "inputs": [
        {
          "internalType": "address",
          "name": "owner",
          "type": "address"
        }
      ],
      "name": "ERC721InvalidOwner",
      "type": "error"
    },
    {
      "inputs": [
        {
          "internalType": "address",
          "name": "receiver",
          "type": "address"
        }
      ],
      "name": "ERC721InvalidReceiver",
      "type": "error"
    },
    {
      "inputs": [
        {
          "internalType": "address",
          "name": "sender",
          "type": "address"
        }
      ],
      "name": "ERC721InvalidSender",
      "type": "error"
    },
    {
      "inputs": [
        {
          "internalType": "uint256",
          "name": "tokenId",
          "type": "uint256"
        }
      ],
      "name": "ERC721NonexistentToken",
      "type": "error"
    },
    {
      "anonymous": false,
      "inputs": [
        {
          "indexed": true,
          "internalType": "address",
          "name": "owner",
          "type": "address"
        },
        {
          "indexed": true,
          "internalType": "address",
          "name": "approved",
          "type": "address"
        },
        {
          "indexed": true,
          "internalType": "uint256",
          "name": "tokenId",
          "type": "uint256"
        }
      ],
      "name": "Approval",
      "type": "event"
    },
    {
      "anonymous": false,
      "inputs": [
        {
          "indexed": true,
          "internalType": "address",
          "name": "owner",
          "type": "address"
        },
        {
          "indexed": true,
          "internalType": "address",
          "name": "operator",
          "type": "address"
        },
        {
          "indexed": false,
          "internalType": "bool",
          "name": "approved",
          "type": "bool"
        }
      ],
      "name": "ApprovalForAll",
      "type": "event"
    },
    {
      "anonymous": false,
      "inputs": [
        {
          "indexed": true,
          "internalType": "uint256",
          "name": "tokenId",
          "type": "uint256"
        },
        {
          "indexed": true,
          "internalType": "address",
          "name": "owner",
          "type": "address"
        }
      ],
      "name": "HouseDelisted",
      "type": "event"
    },
    {
      "anonymous": false,
      "inputs": [
        {
          "indexed": true,
          "internalType": "uint256",
          "name": "tokenId",
          "type": "uint256"
        },
        {
          "indexed": false,
          "internalType": "uint256",
          "name": "price",
          "type": "uint256"
        },
        {
          "indexed": true,
          "internalType": "address",
          "name": "owner",
          "type": "address"
        }
      ],
      "name": "HouseListed",
      "type": "event"
    },
    {
      "anonymous": false,
      "inputs": [
        {
          "indexed": true,
          "internalType": "uint256",
          "name": "tokenId",
          "type": "uint256"
        },
        {
          "indexed": true,
          "internalType": "address",
          "name": "newOwner",
          "type": "address"
        },
        {
          "indexed": false,
          "internalType": "uint256",
          "name": "price",
          "type": "uint256"
        }
      ],
      "name": "HouseSold",
      "type": "event"
    },
    {
      "anonymous": false,
      "inputs": [
        {
          "indexed": true,
          "internalType": "address",
          "name": "from",
          "type": "address"
        },
        {
          "indexed": true,
          "internalType": "address",
          "name": "to",
          "type": "address"
        },
        {
          "indexed": true,
          "internalType": "uint256",
          "name": "tokenId",
          "type": "uint256"
        }
      ],
      "name": "Transfer",
      "type": "event"
    },
    {
      "inputs": [
        {
          "internalType": "address",
          "name": "to",
          "type": "address"
        },
        {
          "internalType": "uint256",
          "name": "tokenId",
          "type": "uint256"
        }
      ],
      "name": "approve",
      "outputs": [],
      "stateMutability": "nonpayable",
      "type": "function"
    },
    {
      "inputs": [
        {
          "internalType": "address",
          "name": "owner",
          "type": "address"
        }
      ],
      "name": "balanceOf",
      "outputs": [
        {
          "internalType": "uint256",
          "name": "",
          "type": "uint256"
        }
      ],
      "stateMutability": "view",
      "type": "function"
    },
    {
      "inputs": [
        {
          "internalType": "uint256",
          "name": "tokenId",
          "type": "uint256"
        }
      ],
      "name": "buyHouseWithETH",
      "outputs": [],
      "stateMutability": "payable",
      "type": "function"
    },
    {
      "inputs": [
        {
          "internalType": "uint256",
          "name": "tokenId",
          "type": "uint256"
        }
      ],
      "name": "buyHouseWithHTK",
      "outputs": [],
      "stateMutability": "nonpayable",
      "type": "function"
    },
    {
      "inputs": [
        {
          "internalType": "uint256",
          "name": "tokenId",
          "type": "uint256"
        }
      ],
      "name": "calculateFee",
      "outputs": [
        {
          "internalType": "uint256",
          "name": "",
          "type": "uint256"
        }
      ],
      "stateMutability": "view",
      "type": "function"
    },
    {
      "inputs": [
        {
          "internalType": "uint256",
          "name": "tokenId",
          "type": "uint256"
        }
      ],
      "name": "calculateFeeHTK",
      "outputs": [
        {
          "internalType": "uint256",
          "name": "",
          "type": "uint256"
        }
      ],
      "stateMutability": "view",
      "type": "function"
    },
    {
      "inputs": [
        {
          "internalType": "uint256",
          "name": "tokenId",
          "type": "uint256"
        }
      ],
      "name": "delistHouse",
      "outputs": [],
      "stateMutability": "nonpayable",
      "type": "function"
    },
    {
      "inputs": [],
      "name": "feePercentage",
      "outputs": [
        {
          "internalType": "uint256",
          "name": "",
          "type": "uint256"
        }
      ],
      "stateMutability": "view",
      "type": "function"
    },
    {
      "inputs": [],
      "name": "getAllHouses",
      "outputs": [
        {
          "components": [
            {
              "internalType": "uint256",
              "name": "tokenId",
              "type": "uint256"
            },
            {
              "internalType": "address",
              "name": "owner",
              "type": "address"
            },
            {
              "internalType": "uint256",
              "name": "price",
              "type": "uint256"
            },
            {
              "internalType": "uint256",
              "name": "listedTimestamp",
              "type": "uint256"
            },
            {
              "internalType": "bool",
              "name": "isForSale",
              "type": "bool"
            }
          ],
          "internalType": "struct BuyMyRoom.HouseWithTokenId[]",
          "name": "",
          "type": "tuple[]"
        }
      ],
      "stateMutability": "view",
      "type": "function"
    },
    {
      "inputs": [
        {
          "internalType": "uint256",
          "name": "tokenId",
          "type": "uint256"
        }
      ],
      "name": "getApproved",
      "outputs": [
        {
          "internalType": "address",
          "name": "",
          "type": "address"
        }
      ],
      "stateMutability": "view",
      "type": "function"
    },
    {
      "inputs": [],
      "name": "getHousesForSale",
      "outputs": [
        {
          "components": [
            {
              "internalType": "uint256",
              "name": "tokenId",
              "type": "uint256"
            },
            {
              "internalType": "address",
              "name": "owner",
              "type": "address"
            },
            {
              "internalType": "uint256",
              "name": "price",
              "type": "uint256"
            },
            {
              "internalType": "uint256",
              "name": "listedTimestamp",
              "type": "uint256"
            },
            {
              "internalType": "bool",
              "name": "isForSale",
              "type": "bool"
            }
          ],
          "internalType": "struct BuyMyRoom.HouseWithTokenId[]",
          "name": "",
          "type": "tuple[]"
        }
      ],
      "stateMutability": "view",
      "type": "function"
    },
    {
      "inputs": [],
      "name": "getMyHouses",
      "outputs": [
        {
          "components": [
            {
              "internalType": "uint256",
              "name": "tokenId",
              "type": "uint256"
            },
            {
              "internalType": "address",
              "name": "owner",
              "type": "address"
            },
            {
              "internalType": "uint256",
              "name": "price",
              "type": "uint256"
            },
            {
              "internalType": "uint256",
              "name": "listedTimestamp",
              "type": "uint256"
            },
            {
              "internalType": "bool",
              "name": "isForSale",
              "type": "bool"
            }
          ],
          "internalType": "struct BuyMyRoom.HouseWithTokenId[]",
          "name": "",
          "type": "tuple[]"
        }
      ],
      "stateMutability": "view",
      "type": "function"
    },
    {
      "inputs": [],
      "name": "getPlatformOwner",
      "outputs": [
        {
          "internalType": "address",
          "name": "",
          "type": "address"
        }
      ],
      "stateMutability": "view",
      "type": "function"
    },
    {
      "inputs": [],
      "name": "houseCount",
      "outputs": [
        {
          "internalType": "uint256",
          "name": "",
          "type": "uint256"
        }
      ],
      "stateMutability": "view",
      "type": "function"
    },
    {
      "inputs": [
        {
          "internalType": "uint256",
          "name": "",
          "type": "uint256"
        }
      ],
      "name": "houses",
      "outputs": [
        {
          "internalType": "address",
          "name": "owner",
          "type": "address"
        },
        {
          "internalType": "uint256",
          "name": "price",
          "type": "uint256"
        },
        {
          "internalType": "uint256",
          "name": "listedTimestamp",
          "type": "uint256"
        },
        {
          "internalType": "bool",
          "name": "isForSale",
          "type": "bool"
        }
      ],
      "stateMutability": "view",
      "type": "function"
    },
    {
      "inputs": [],
      "name": "htkToken",
      "outputs": [
        {
          "internalType": "contract HTKToken",
          "name": "",
          "type": "address"
        }
      ],
      "stateMutability": "view",
      "type": "function"
    },
    {
      "inputs": [
        {
          "internalType": "address",
          "name": "owner",
          "type": "address"
        },
        {
          "internalType": "address",
          "name": "operator",
          "type": "address"
        }
      ],
      "name": "isApprovedForAll",
      "outputs": [
        {
          "internalType": "bool",
          "name": "",
          "type": "bool"
        }
      ],
      "stateMutability": "view",
      "type": "function"
    },
    {
      "inputs": [
        {
          "internalType": "uint256",
          "name": "tokenId",
          "type": "uint256"
        },
        {
          "internalType": "uint256",
          "name": "price",
          "type": "uint256"
        }
      ],
      "name": "listHouseForSale",
      "outputs": [],
      "stateMutability": "nonpayable",
      "type": "function"
    },
    {
      "inputs": [
        {
          "internalType": "address",
          "name": "to",
          "type": "address"
        }
      ],
      "name": "mintHouse",
      "outputs": [],
      "stateMutability": "nonpayable",
      "type": "function"
    },
    {
      "inputs": [],
      "name": "name",
      "outputs": [
        {
          "internalType": "string",
          "name": "",
          "type": "string"
        }
      ],
      "stateMutability": "view",
      "type": "function"
    },
    {
      "inputs": [
        {
          "internalType": "address",
          "name": "",
          "type": "address"
        },
        {
          "internalType": "uint256",
          "name": "",
          "type": "uint256"
        }
      ],
      "name": "ownerHouses",
      "outputs": [
        {
          "internalType": "uint256",
          "name": "",
          "type": "uint256"
        }
      ],
      "stateMutability": "view",
      "type": "function"
    },
    {
      "inputs": [
        {
          "internalType": "uint256",
          "name": "tokenId",
          "type": "uint256"
        }
      ],
      "name": "ownerOf",
      "outputs": [
        {
          "internalType": "address",
          "name": "",
          "type": "address"
        }
      ],
      "stateMutability": "view",
      "type": "function"
    },
    {
      "inputs": [],
      "name": "platformOwner",
      "outputs": [
        {
          "internalType": "address",
          "name": "",
          "type": "address"
        }
      ],
      "stateMutability": "view",
      "type": "function"
    },
    {
      "inputs": [
        {
          "internalType": "address",
          "name": "from",
          "type": "address"
        },
        {
          "internalType": "address",
          "name": "to",
          "type": "address"
        },
        {
          "internalType": "uint256",
          "name": "tokenId",
          "type": "uint256"
        }
      ],
      "name": "safeTransferFrom",
      "outputs": [],
      "stateMutability": "nonpayable",
      "type": "function"
    },
    {
      "inputs": [
        {
          "internalType": "address",
          "name": "from",
          "type": "address"
        },
        {
          "internalType": "address",
          "name": "to",
          "type": "address"
        },
        {
          "internalType": "uint256",
          "name": "tokenId",
          "type": "uint256"
        },
        {
          "internalType": "bytes",
          "name": "data",
          "type": "bytes"
        }
      ],
      "name": "safeTransferFrom",
      "outputs": [],
      "stateMutability": "nonpayable",
      "type": "function"
    },
    {
      "inputs": [
        {
          "internalType": "address",
          "name": "operator",
          "type": "address"
        },
        {
          "internalType": "bool",
          "name": "approved",
          "type": "bool"
        }
      ],
      "name": "setApprovalForAll",
      "outputs": [],
      "stateMutability": "nonpayable",
      "type": "function"
    },
    {
      "inputs": [
        {
          "internalType": "bytes4",
          "name": "interfaceId",
          "type": "bytes4"
        }
      ],
      "name": "supportsInterface",
      "outputs": [
        {
          "internalType": "bool",
          "name": "",
          "type": "bool"
        }
      ],
      "stateMutability": "view",
      "type": "function"
    },
    {
      "inputs": [],
      "name": "symbol",
      "outputs": [
        {
          "internalType": "string",
          "name": "",
          "type": "string"
        }
      ],
      "stateMutability": "view",
      "type": "function"
    },
    {
      "inputs": [
        {
          "internalType": "uint256",
          "name": "tokenId",
          "type": "uint256"
        }
      ],
      "name": "tokenURI",
      "outputs": [
        {
          "internalType": "string",
          "name": "",
          "type": "string"
        }
      ],
      "stateMutability": "view",
      "type": "function"
    },
    {
      "inputs": [
        {
          "internalType": "address",
          "name": "from",
          "type": "address"
        },
        {
          "internalType": "address",
          "name": "to",
          "type": "address"
        },
        {
          "internalType": "uint256",
          "name": "tokenId",
          "type": "uint256"
        }
      ],
      "name": "transferFrom",
      "outputs": [],
      "stateMutability": "nonpayable",
      "type": "function"
    }
  ],
  "bytecode": "0x608060405260006007556005600a553480156200001b57600080fd5b506040518060400160405280600981526020017f4275794d79526f6f6d00000000000000000000000000000000000000000000008152506040518060400160405280600381526020017f424d5200000000000000000000000000000000000000000000000000000000008152508160009081620000999190620003e9565b508060019081620000ab9190620003e9565b50505033600b60006101000a81548173ffffffffffffffffffffffffffffffffffffffff021916908373ffffffffffffffffffffffffffffffffffffffff160217905550604051620000fd9062000161565b604051809103906000f0801580156200011a573d6000803e3d6000fd5b50600660006101000a81548173ffffffffffffffffffffffffffffffffffffffff021916908373ffffffffffffffffffffffffffffffffffffffff160217905550620004d0565b611f9a80620042e883390190565b600081519050919050565b7f4e487b7100000000000000000000000000000000000000000000000000000000600052604160045260246000fd5b7f4e487b7100000000000000000000000000000000000000000000000000000000600052602260045260246000fd5b60006002820490506001821680620001f157607f821691505b602082108103620002075762000206620001a9565b5b50919050565b60008190508160005260206000209050919050565b60006020601f8301049050919050565b600082821b905092915050565b600060088302620002717fffffffffffffffffffffffffffffffffffffffffffffffffffffffffffffffff8262000232565b6200027d868362000232565b95508019841693508086168417925050509392505050565b6000819050919050565b6000819050919050565b6000620002ca620002c4620002be8462000295565b6200029f565b62000295565b9050919050565b6000819050919050565b620002e683620002a9565b620002fe620002f582620002d1565b8484546200023f565b825550505050565b600090565b6200031562000306565b62000322818484620002db565b505050565b5b818110156200034a576200033e6000826200030b565b60018101905062000328565b5050565b601f821115620003995762000363816200020d565b6200036e8462000222565b810160208510156200037e578190505b620003966200038d8562000222565b83018262000327565b50505b505050565b600082821c905092915050565b6000620003be600019846008026200039e565b1980831691505092915050565b6000620003d98383620003ab565b9150826002028217905092915050565b620003f4826200016f565b67ffffffffffffffff81111562000410576200040f6200017a565b5b6200041c8254620001d8565b620004298282856200034e565b600060209050601f8311600181146200046157600084156200044c578287015190505b620004588582620003cb565b865550620004c8565b601f19841662000471866200020d565b60005b828110156200049b5784890151825560018201915060208501945060208101905062000474565b86831015620004bb5784890151620004b7601f891682620003ab565b8355505b6001600288020188555050505b505050505050565b613e0880620004e06000396000f3fe6080604052600436106101cd5760003560e01c80639946f084116100f7578063b14f1afd11610095578063c9fd96ad11610064578063c9fd96ad146106b6578063d87deea8146106df578063e985e9c51461070a578063ec5f335214610747576101cd565b8063b14f1afd146105fa578063b88d4fde14610625578063bd74f8b11461064e578063c87b56dd14610679576101cd565b8063a001ecdd116100d1578063a001ecdd1461053b578063a22cb46514610566578063ab975e3b1461058f578063aeda852f146105ba576101cd565b80639946f084146104aa57806399a5d747146104d35780639e4ffa7f14610510576101cd565b806342842e0e1161016f5780634df8ccb11161013e5780634df8ccb1146103da5780636352211e1461040557806370a082311461044257806395d89b411461047f576101cd565b806342842e0e1461032f5780634bbb7441146103585780634cdea0a4146103955780634d79658b146103be576101cd565b8063095ea7b3116101ab578063095ea7b31461027757806323b872dd146102a05780633c3b0b4a146102c9578063406f008a146102f2576101cd565b806301ffc9a7146101d257806306fdde031461020f578063081812fc1461023a575b600080fd5b3480156101de57600080fd5b506101f960048036038101906101f49190612fb6565b610772565b6040516102069190612ffe565b60405180910390f35b34801561021b57600080fd5b50610224610854565b60405161023191906130a9565b60405180910390f35b34801561024657600080fd5b50610261600480360381019061025c9190613101565b6108e6565b60405161026e919061316f565b60405180910390f35b34801561028357600080fd5b5061029e600480360381019061029991906131b6565b610902565b005b3480156102ac57600080fd5b506102c760048036038101906102c291906131f6565b610918565b005b3480156102d557600080fd5b506102f060048036038101906102eb9190613101565b610a1a565b005b3480156102fe57600080fd5b5061031960048036038101906103149190613101565b610b22565b6040516103269190613258565b60405180910390f35b34801561033b57600080fd5b50610356600480360381019061035191906131f6565b610ba8565b005b34801561036457600080fd5b5061037f600480360381019061037a91906131b6565b610bc8565b60405161038c9190613258565b60405180910390f35b3480156103a157600080fd5b506103bc60048036038101906103b79190613101565b610bf9565b005b6103d860048036038101906103d39190613101565b610f75565b005b3480156103e657600080fd5b506103ef61127b565b6040516103fc919061316f565b60405180910390f35b34801561041157600080fd5b5061042c60048036038101906104279190613101565b6112a1565b604051610439919061316f565b60405180910390f35b34801561044e57600080fd5b5061046960048036038101906104649190613273565b6112b3565b6040516104769190613258565b60405180910390f35b34801561048b57600080fd5b5061049461136d565b6040516104a191906130a9565b60405180910390f35b3480156104b657600080fd5b506104d160048036038101906104cc9190613273565b6113ff565b005b3480156104df57600080fd5b506104fa60048036038101906104f59190613101565b6115ed565b6040516105079190613258565b60405180910390f35b34801561051c57600080fd5b50610525611666565b60405161053291906133e4565b60405180910390f35b34801561054757600080fd5b50610550611865565b60405161055d9190613258565b60405180910390f35b34801561057257600080fd5b5061058d60048036038101906105889190613432565b61186b565b005b34801561059b57600080fd5b506105a4611881565b6040516105b1919061316f565b60405180910390f35b3480156105c657600080fd5b506105e160048036038101906105dc9190613101565b6118ab565b6040516105f19493929190613472565b60405180910390f35b34801561060657600080fd5b5061060f611908565b60405161061c91906133e4565b60405180910390f35b34801561063157600080fd5b5061064c600480360381019061064791906135ec565b611b1f565b005b34801561065a57600080fd5b50610663611b3c565b6040516106709190613258565b60405180910390f35b34801561068557600080fd5b506106a0600480360381019061069b9190613101565b611b42565b6040516106ad91906130a9565b60405180910390f35b3480156106c257600080fd5b506106dd60048036038101906106d8919061366f565b611bab565b005b3480156106eb57600080fd5b506106f4611d1c565b60405161070191906133e4565b60405180910390f35b34801561071657600080fd5b50610731600480360381019061072c91906136af565b611e91565b60405161073e9190612ffe565b60405180910390f35b34801561075357600080fd5b5061075c611f25565b604051610769919061374e565b60405180910390f35b60007f80ac58cd000000000000000000000000000000000000000000000000000000007bffffffffffffffffffffffffffffffffffffffffffffffffffffffff1916827bffffffffffffffffffffffffffffffffffffffffffffffffffffffff1916148061083d57507f5b5e139f000000000000000000000000000000000000000000000000000000007bffffffffffffffffffffffffffffffffffffffffffffffffffffffff1916827bffffffffffffffffffffffffffffffffffffffffffffffffffffffff1916145b8061084d575061084c82611f4b565b5b9050919050565b60606000805461086390613798565b80601f016020809104026020016040519081016040528092919081815260200182805461088f90613798565b80156108dc5780601f106108b1576101008083540402835291602001916108dc565b820191906000526020600020905b8154815290600101906020018083116108bf57829003601f168201915b5050505050905090565b60006108f182611fb5565b506108fb8261203d565b9050919050565b610914828261090f61207a565b612082565b5050565b600073ffffffffffffffffffffffffffffffffffffffff168273ffffffffffffffffffffffffffffffffffffffff160361098a5760006040517f64a0ae92000000000000000000000000000000000000000000000000000000008152600401610981919061316f565b60405180910390fd5b600061099e838361099961207a565b612094565b90508373ffffffffffffffffffffffffffffffffffffffff168173ffffffffffffffffffffffffffffffffffffffff1614610a14578382826040517f64283d7b000000000000000000000000000000000000000000000000000000008152600401610a0b939291906137c9565b60405180910390fd5b50505050565b3373ffffffffffffffffffffffffffffffffffffffff16610a3a826112a1565b73ffffffffffffffffffffffffffffffffffffffff1614610a90576040517f08c379a0000000000000000000000000000000000000000000000000000000008152600401610a8790613872565b60405180910390fd5b60006008600083815260200190815260200160002060030160006101000a81548160ff021916908315150217905550600060086000838152602001908152602001600020600201819055503373ffffffffffffffffffffffffffffffffffffffff16817f729606fdcae8235b5150dcf1480e222ab8cf12d032ace131cb8baeacf9ec970660405160405180910390a350565b60008062015180600860008581526020019081526020016000206002015442610b4b91906138c1565b610b559190613924565b905061271081600a546103e86008600088815260200190815260200160002060010154610b829190613955565b610b8c9190613955565b610b969190613955565b610ba09190613924565b915050919050565b610bc383838360405180602001604052806000815250611b1f565b505050565b60096020528160005260406000208181548110610be457600080fd5b90600052602060002001600091509150505481565b6008600082815260200190815260200160002060030160009054906101000a900460ff16610c5c576040517f08c379a0000000000000000000000000000000000000000000000000000000008152600401610c53906139e3565b60405180910390fd5b60006103e86008600084815260200190815260200160002060010154610c829190613955565b90506000610c8f83610b22565b905060008183610c9f91906138c1565b9050600660009054906101000a900473ffffffffffffffffffffffffffffffffffffffff1673ffffffffffffffffffffffffffffffffffffffff166323b872dd33610ce9876112a1565b846040518463ffffffff1660e01b8152600401610d0893929190613a03565b6020604051808303816000875af1158015610d27573d6000803e3d6000fd5b505050506040513d601f19601f82011682018060405250810190610d4b9190613a4f565b50600660009054906101000a900473ffffffffffffffffffffffffffffffffffffffff1673ffffffffffffffffffffffffffffffffffffffff166323b872dd33600b60009054906101000a900473ffffffffffffffffffffffffffffffffffffffff16856040518463ffffffff1660e01b8152600401610dcd93929190613a03565b6020604051808303816000875af1158015610dec573d6000803e3d6000fd5b505050506040513d601f19601f82011682018060405250810190610e109190613a4f565b50610e24610e1d856112a1565b33866122ae565b336008600086815260200190815260200160002060000160006101000a81548173ffffffffffffffffffffffffffffffffffffffff021916908373ffffffffffffffffffffffffffffffffffffffff16021790555060006008600086815260200190815260200160002060030160006101000a81548160ff021916908315150217905550600960003373ffffffffffffffffffffffffffffffffffffffff1673ffffffffffffffffffffffffffffffffffffffff168152602001908152602001600020849080600181540180825580915050600190039060005260206000200160009091909190915055610f20610f1a856112a1565b8561241b565b3373ffffffffffffffffffffffffffffffffffffffff16847f7d8ae52f455fef56a09ce9edb1dc811247eeee52705033ef77eb1dbf84fb9cbd85604051610f679190613258565b60405180910390a350505050565b6008600082815260200190815260200160002060030160009054906101000a900460ff16610fd8576040517f08c379a0000000000000000000000000000000000000000000000000000000008152600401610fcf906139e3565b60405180910390fd5b6008600082815260200190815260200160002060010154341015611031576040517f08c379a000000000000000000000000000000000000000000000000000000000815260040161102890613ac8565b60405180910390fd5b600061103c826112a1565b90506000600860008481526020019081526020016000206001015490506000611064846115ed565b90506000818361107491906138c1565b90506110818433876122ae565b8373ffffffffffffffffffffffffffffffffffffffff166108fc829081150290604051600060405180830381858888f193505050501580156110c7573d6000803e3d6000fd5b50600b60009054906101000a900473ffffffffffffffffffffffffffffffffffffffff1673ffffffffffffffffffffffffffffffffffffffff166108fc839081150290604051600060405180830381858888f19350505050158015611130573d6000803e3d6000fd5b50336008600087815260200190815260200160002060000160006101000a81548173ffffffffffffffffffffffffffffffffffffffff021916908373ffffffffffffffffffffffffffffffffffffffff16021790555060006008600087815260200190815260200160002060030160006101000a81548160ff021916908315150217905550600960003373ffffffffffffffffffffffffffffffffffffffff1673ffffffffffffffffffffffffffffffffffffffff168152602001908152602001600020859080600181540180825580915050600190039060005260206000200160009091909190915055611225848661241b565b3373ffffffffffffffffffffffffffffffffffffffff16857f7d8ae52f455fef56a09ce9edb1dc811247eeee52705033ef77eb1dbf84fb9cbd8560405161126c9190613258565b60405180910390a35050505050565b600b60009054906101000a900473ffffffffffffffffffffffffffffffffffffffff1681565b60006112ac82611fb5565b9050919050565b60008073ffffffffffffffffffffffffffffffffffffffff168273ffffffffffffffffffffffffffffffffffffffff16036113265760006040517f89c62b6400000000000000000000000000000000000000000000000000000000815260040161131d919061316f565b60405180910390fd5b600360008373ffffffffffffffffffffffffffffffffffffffff1673ffffffffffffffffffffffffffffffffffffffff168152602001908152602001600020549050919050565b60606001805461137c90613798565b80601f01602080910402602001604051908101604052809291908181526020018280546113a890613798565b80156113f55780601f106113ca576101008083540402835291602001916113f5565b820191906000526020600020905b8154815290600101906020018083116113d857829003601f168201915b5050505050905090565b600b60009054906101000a900473ffffffffffffffffffffffffffffffffffffffff1673ffffffffffffffffffffffffffffffffffffffff163373ffffffffffffffffffffffffffffffffffffffff161461148f576040517f08c379a000000000000000000000000000000000000000000000000000000000815260040161148690613b34565b60405180910390fd5b600760008154809291906114a290613b54565b91905055506114b381600754612525565b60405180608001604052808273ffffffffffffffffffffffffffffffffffffffff16815260200160008152602001600081526020016000151581525060086000600754815260200190815260200160002060008201518160000160006101000a81548173ffffffffffffffffffffffffffffffffffffffff021916908373ffffffffffffffffffffffffffffffffffffffff160217905550602082015181600101556040820151816002015560608201518160030160006101000a81548160ff021916908315150217905550905050600960008273ffffffffffffffffffffffffffffffffffffffff1673ffffffffffffffffffffffffffffffffffffffff168152602001908152602001600020600754908060018154018082558091505060019003906000526020600020016000909190919091505550565b6000806201518060086000858152602001908152602001600020600201544261161691906138c1565b6116209190613924565b905061271081600a54600860008781526020019081526020016000206001015461164a9190613955565b6116549190613955565b61165e9190613924565b915050919050565b6060600080600190505b60075481116116c4576008600082815260200190815260200160002060030160009054906101000a900460ff16156116b15781806116ad90613b54565b9250505b80806116bc90613b54565b915050611670565b5060008167ffffffffffffffff8111156116e1576116e06134c1565b5b60405190808252806020026020018201604052801561171a57816020015b611707612f03565b8152602001906001900390816116ff5790505b509050600080600190505b600754811161185b576008600082815260200190815260200160002060030160009054906101000a900460ff1615611848576040518060a001604052808281526020016008600084815260200190815260200160002060000160009054906101000a900473ffffffffffffffffffffffffffffffffffffffff1673ffffffffffffffffffffffffffffffffffffffff16815260200160086000848152602001908152602001600020600101548152602001600860008481526020019081526020016000206002015481526020016008600084815260200190815260200160002060030160009054906101000a900460ff16151581525083838151811061182e5761182d613b9c565b5b6020026020010181905250818061184490613b54565b9250505b808061185390613b54565b915050611725565b5081935050505090565b600a5481565b61187d61187661207a565b838361261e565b5050565b6000600b60009054906101000a900473ffffffffffffffffffffffffffffffffffffffff16905090565b60086020528060005260406000206000915090508060000160009054906101000a900473ffffffffffffffffffffffffffffffffffffffff16908060010154908060020154908060030160009054906101000a900460ff16905084565b60606000600960003373ffffffffffffffffffffffffffffffffffffffff1673ffffffffffffffffffffffffffffffffffffffff16815260200190815260200160002080548060200260200160405190810160405280929190818152602001828054801561199557602002820191906000526020600020905b815481526020019060010190808311611981575b505050505090506000815167ffffffffffffffff8111156119b9576119b86134c1565b5b6040519080825280602002602001820160405280156119f257816020015b6119df612f03565b8152602001906001900390816119d75790505b50905060005b8251811015611b16576000838281518110611a1657611a15613b9c565b5b602002602001015190506040518060a001604052808281526020016008600084815260200190815260200160002060000160009054906101000a900473ffffffffffffffffffffffffffffffffffffffff1673ffffffffffffffffffffffffffffffffffffffff16815260200160086000848152602001908152602001600020600101548152602001600860008481526020019081526020016000206002015481526020016008600084815260200190815260200160002060030160009054906101000a900460ff161515815250838381518110611af757611af6613b9c565b5b6020026020010181905250508080611b0e90613b54565b9150506119f8565b50809250505090565b611b2a848484610918565b611b368484848461278d565b50505050565b60075481565b6060611b4d82611fb5565b506000611b58612944565b90506000815111611b785760405180602001604052806000815250611ba3565b80611b828461295b565b604051602001611b93929190613c07565b6040516020818303038152906040525b915050919050565b3373ffffffffffffffffffffffffffffffffffffffff16611bcb836112a1565b73ffffffffffffffffffffffffffffffffffffffff1614611c21576040517f08c379a0000000000000000000000000000000000000000000000000000000008152600401611c1890613872565b60405180910390fd5b60008111611c64576040517f08c379a0000000000000000000000000000000000000000000000000000000008152600401611c5b90613c77565b60405180910390fd5b80600860008481526020019081526020016000206001018190555042600860008481526020019081526020016000206002018190555060016008600084815260200190815260200160002060030160006101000a81548160ff0219169083151502179055503373ffffffffffffffffffffffffffffffffffffffff16827f60b3e540896cf4a419e7b7274a1f1282223f5d92ca6f0152cf820fe457fb484383604051611d109190613258565b60405180910390a35050565b6060600060075467ffffffffffffffff811115611d3c57611d3b6134c1565b5b604051908082528060200260200182016040528015611d7557816020015b611d62612f03565b815260200190600190039081611d5a5790505b5090506000600190505b6007548111611e89576040518060a001604052808281526020016008600084815260200190815260200160002060000160009054906101000a900473ffffffffffffffffffffffffffffffffffffffff1673ffffffffffffffffffffffffffffffffffffffff16815260200160086000848152602001908152602001600020600101548152602001600860008481526020019081526020016000206002015481526020016008600084815260200190815260200160002060030160009054906101000a900460ff16151581525082600183611e5a91906138c1565b81518110611e6b57611e6a613b9c565b5b60200260200101819052508080611e8190613b54565b915050611d7f565b508091505090565b6000600560008473ffffffffffffffffffffffffffffffffffffffff1673ffffffffffffffffffffffffffffffffffffffff16815260200190815260200160002060008373ffffffffffffffffffffffffffffffffffffffff1673ffffffffffffffffffffffffffffffffffffffff16815260200190815260200160002060009054906101000a900460ff16905092915050565b600660009054906101000a900473ffffffffffffffffffffffffffffffffffffffff1681565b60007f01ffc9a7000000000000000000000000000000000000000000000000000000007bffffffffffffffffffffffffffffffffffffffffffffffffffffffff1916827bffffffffffffffffffffffffffffffffffffffffffffffffffffffff1916149050919050565b600080611fc183612a29565b9050600073ffffffffffffffffffffffffffffffffffffffff168173ffffffffffffffffffffffffffffffffffffffff160361203457826040517f7e27328900000000000000000000000000000000000000000000000000000000815260040161202b9190613258565b60405180910390fd5b80915050919050565b60006004600083815260200190815260200160002060009054906101000a900473ffffffffffffffffffffffffffffffffffffffff169050919050565b600033905090565b61208f8383836001612a66565b505050565b6000806120a084612a29565b9050600073ffffffffffffffffffffffffffffffffffffffff168373ffffffffffffffffffffffffffffffffffffffff16146120e2576120e1818486612c2b565b5b600073ffffffffffffffffffffffffffffffffffffffff168173ffffffffffffffffffffffffffffffffffffffff161461217357612124600085600080612a66565b6001600360008373ffffffffffffffffffffffffffffffffffffffff1673ffffffffffffffffffffffffffffffffffffffff168152602001908152602001600020600082825403925050819055505b600073ffffffffffffffffffffffffffffffffffffffff168573ffffffffffffffffffffffffffffffffffffffff16146121f6576001600360008773ffffffffffffffffffffffffffffffffffffffff1673ffffffffffffffffffffffffffffffffffffffff168152602001908152602001600020600082825401925050819055505b846002600086815260200190815260200160002060006101000a81548173ffffffffffffffffffffffffffffffffffffffff021916908373ffffffffffffffffffffffffffffffffffffffff160217905550838573ffffffffffffffffffffffffffffffffffffffff168273ffffffffffffffffffffffffffffffffffffffff167fddf252ad1be2c89b69c2b068fc378daa952ba7f163c4a11628f55a4df523b3ef60405160405180910390a4809150509392505050565b600073ffffffffffffffffffffffffffffffffffffffff168273ffffffffffffffffffffffffffffffffffffffff16036123205760006040517f64a0ae92000000000000000000000000000000000000000000000000000000008152600401612317919061316f565b60405180910390fd5b600061232e83836000612094565b9050600073ffffffffffffffffffffffffffffffffffffffff168173ffffffffffffffffffffffffffffffffffffffff16036123a157816040517f7e2732890000000000000000000000000000000000000000000000000000000081526004016123989190613258565b60405180910390fd5b8373ffffffffffffffffffffffffffffffffffffffff168173ffffffffffffffffffffffffffffffffffffffff1614612415578382826040517f64283d7b00000000000000000000000000000000000000000000000000000000815260040161240c939291906137c9565b60405180910390fd5b50505050565b6000600960008473ffffffffffffffffffffffffffffffffffffffff1673ffffffffffffffffffffffffffffffffffffffff168152602001908152602001600020905060005b818054905081101561251f578282828154811061248157612480613b9c565b5b90600052602060002001540361250c5781600183805490506124a391906138c1565b815481106124b4576124b3613b9c565b5b90600052602060002001548282815481106124d2576124d1613b9c565b5b9060005260206000200181905550818054806124f1576124f0613c97565b5b6001900381819060005260206000200160009055905561251f565b808061251790613b54565b915050612461565b50505050565b600073ffffffffffffffffffffffffffffffffffffffff168273ffffffffffffffffffffffffffffffffffffffff16036125975760006040517f64a0ae9200000000000000000000000000000000000000000000000000000000815260040161258e919061316f565b60405180910390fd5b60006125a583836000612094565b9050600073ffffffffffffffffffffffffffffffffffffffff168173ffffffffffffffffffffffffffffffffffffffff16146126195760006040517f73c6ac6e000000000000000000000000000000000000000000000000000000008152600401612610919061316f565b60405180910390fd5b505050565b600073ffffffffffffffffffffffffffffffffffffffff168273ffffffffffffffffffffffffffffffffffffffff160361268f57816040517f5b08ba18000000000000000000000000000000000000000000000000000000008152600401612686919061316f565b60405180910390fd5b80600560008573ffffffffffffffffffffffffffffffffffffffff1673ffffffffffffffffffffffffffffffffffffffff16815260200190815260200160002060008473ffffffffffffffffffffffffffffffffffffffff1673ffffffffffffffffffffffffffffffffffffffff16815260200190815260200160002060006101000a81548160ff0219169083151502179055508173ffffffffffffffffffffffffffffffffffffffff168373ffffffffffffffffffffffffffffffffffffffff167f17307eab39ab6107e8899845ad3d59bd9653f200f220920489ca2b5937696c31836040516127809190612ffe565b60405180910390a3505050565b60008373ffffffffffffffffffffffffffffffffffffffff163b111561293e578273ffffffffffffffffffffffffffffffffffffffff1663150b7a026127d161207a565b8685856040518563ffffffff1660e01b81526004016127f39493929190613d1b565b6020604051808303816000875af192505050801561282f57506040513d601f19601f8201168201806040525081019061282c9190613d7c565b60015b6128b3573d806000811461285f576040519150601f19603f3d011682016040523d82523d6000602084013e612864565b606091505b5060008151036128ab57836040517f64a0ae920000000000000000000000000000000000000000000000000000000081526004016128a2919061316f565b60405180910390fd5b805181602001fd5b63150b7a0260e01b7bffffffffffffffffffffffffffffffffffffffffffffffffffffffff1916817bffffffffffffffffffffffffffffffffffffffffffffffffffffffff19161461293c57836040517f64a0ae92000000000000000000000000000000000000000000000000000000008152600401612933919061316f565b60405180910390fd5b505b50505050565b606060405180602001604052806000815250905090565b60606000600161296a84612cef565b01905060008167ffffffffffffffff811115612989576129886134c1565b5b6040519080825280601f01601f1916602001820160405280156129bb5781602001600182028036833780820191505090505b509050600082602001820190505b600115612a1e578080600190039150507f3031323334353637383961626364656600000000000000000000000000000000600a86061a8153600a8581612a1257612a116138f5565b5b049450600085036129c9575b819350505050919050565b60006002600083815260200190815260200160002060009054906101000a900473ffffffffffffffffffffffffffffffffffffffff169050919050565b8080612a9f5750600073ffffffffffffffffffffffffffffffffffffffff168273ffffffffffffffffffffffffffffffffffffffff1614155b15612bd3576000612aaf84611fb5565b9050600073ffffffffffffffffffffffffffffffffffffffff168373ffffffffffffffffffffffffffffffffffffffff1614158015612b1a57508273ffffffffffffffffffffffffffffffffffffffff168173ffffffffffffffffffffffffffffffffffffffff1614155b8015612b2d5750612b2b8184611e91565b155b15612b6f57826040517fa9fbf51f000000000000000000000000000000000000000000000000000000008152600401612b66919061316f565b60405180910390fd5b8115612bd157838573ffffffffffffffffffffffffffffffffffffffff168273ffffffffffffffffffffffffffffffffffffffff167f8c5be1e5ebec7d5bd14f71427d1e84f3dd0314c0f7b2291e5b200ac8c7c3b92560405160405180910390a45b505b836004600085815260200190815260200160002060006101000a81548173ffffffffffffffffffffffffffffffffffffffff021916908373ffffffffffffffffffffffffffffffffffffffff16021790555050505050565b612c36838383612e42565b612cea57600073ffffffffffffffffffffffffffffffffffffffff168373ffffffffffffffffffffffffffffffffffffffff1603612cab57806040517f7e273289000000000000000000000000000000000000000000000000000000008152600401612ca29190613258565b60405180910390fd5b81816040517f177e802f000000000000000000000000000000000000000000000000000000008152600401612ce1929190613da9565b60405180910390fd5b505050565b600080600090507a184f03e93ff9f4daa797ed6e38ed64bf6a1f0100000000000000008310612d4d577a184f03e93ff9f4daa797ed6e38ed64bf6a1f0100000000000000008381612d4357612d426138f5565b5b0492506040810190505b6d04ee2d6d415b85acef81000000008310612d8a576d04ee2d6d415b85acef81000000008381612d8057612d7f6138f5565b5b0492506020810190505b662386f26fc100008310612db957662386f26fc100008381612daf57612dae6138f5565b5b0492506010810190505b6305f5e1008310612de2576305f5e1008381612dd857612dd76138f5565b5b0492506008810190505b6127108310612e07576127108381612dfd57612dfc6138f5565b5b0492506004810190505b60648310612e2a5760648381612e2057612e1f6138f5565b5b0492506002810190505b600a8310612e39576001810190505b80915050919050565b60008073ffffffffffffffffffffffffffffffffffffffff168373ffffffffffffffffffffffffffffffffffffffff1614158015612efa57508273ffffffffffffffffffffffffffffffffffffffff168473ffffffffffffffffffffffffffffffffffffffff161480612ebb5750612eba8484611e91565b5b80612ef957508273ffffffffffffffffffffffffffffffffffffffff16612ee18361203d565b73ffffffffffffffffffffffffffffffffffffffff16145b5b90509392505050565b6040518060a0016040528060008152602001600073ffffffffffffffffffffffffffffffffffffffff16815260200160008152602001600081526020016000151581525090565b6000604051905090565b600080fd5b600080fd5b60007fffffffff0000000000000000000000000000000000000000000000000000000082169050919050565b612f9381612f5e565b8114612f9e57600080fd5b50565b600081359050612fb081612f8a565b92915050565b600060208284031215612fcc57612fcb612f54565b5b6000612fda84828501612fa1565b91505092915050565b60008115159050919050565b612ff881612fe3565b82525050565b60006020820190506130136000830184612fef565b92915050565b600081519050919050565b600082825260208201905092915050565b60005b83811015613053578082015181840152602081019050613038565b60008484015250505050565b6000601f19601f8301169050919050565b600061307b82613019565b6130858185613024565b9350613095818560208601613035565b61309e8161305f565b840191505092915050565b600060208201905081810360008301526130c38184613070565b905092915050565b6000819050919050565b6130de816130cb565b81146130e957600080fd5b50565b6000813590506130fb816130d5565b92915050565b60006020828403121561311757613116612f54565b5b6000613125848285016130ec565b91505092915050565b600073ffffffffffffffffffffffffffffffffffffffff82169050919050565b60006131598261312e565b9050919050565b6131698161314e565b82525050565b60006020820190506131846000830184613160565b92915050565b6131938161314e565b811461319e57600080fd5b50565b6000813590506131b08161318a565b92915050565b600080604083850312156131cd576131cc612f54565b5b60006131db858286016131a1565b92505060206131ec858286016130ec565b9150509250929050565b60008060006060848603121561320f5761320e612f54565b5b600061321d868287016131a1565b935050602061322e868287016131a1565b925050604061323f868287016130ec565b9150509250925092565b613252816130cb565b82525050565b600060208201905061326d6000830184613249565b92915050565b60006020828403121561328957613288612f54565b5b6000613297848285016131a1565b91505092915050565b600081519050919050565b600082825260208201905092915050565b6000819050602082019050919050565b6132d5816130cb565b82525050565b6132e48161314e565b82525050565b6132f381612fe3565b82525050565b60a08201600082015161330f60008501826132cc565b50602082015161332260208501826132db565b50604082015161333560408501826132cc565b50606082015161334860608501826132cc565b50608082015161335b60808501826132ea565b50505050565b600061336d83836132f9565b60a08301905092915050565b6000602082019050919050565b6000613391826132a0565b61339b81856132ab565b93506133a6836132bc565b8060005b838110156133d75781516133be8882613361565b97506133c983613379565b9250506001810190506133aa565b5085935050505092915050565b600060208201905081810360008301526133fe8184613386565b905092915050565b61340f81612fe3565b811461341a57600080fd5b50565b60008135905061342c81613406565b92915050565b6000806040838503121561344957613448612f54565b5b6000613457858286016131a1565b92505060206134688582860161341d565b9150509250929050565b60006080820190506134876000830187613160565b6134946020830186613249565b6134a16040830185613249565b6134ae6060830184612fef565b95945050505050565b600080fd5b600080fd5b7f4e487b7100000000000000000000000000000000000000000000000000000000600052604160045260246000fd5b6134f98261305f565b810181811067ffffffffffffffff82111715613518576135176134c1565b5b80604052505050565b600061352b612f4a565b905061353782826134f0565b919050565b600067ffffffffffffffff821115613557576135566134c1565b5b6135608261305f565b9050602081019050919050565b82818337600083830152505050565b600061358f61358a8461353c565b613521565b9050828152602081018484840111156135ab576135aa6134bc565b5b6135b684828561356d565b509392505050565b600082601f8301126135d3576135d26134b7565b5b81356135e384826020860161357c565b91505092915050565b6000806000806080858703121561360657613605612f54565b5b6000613614878288016131a1565b9450506020613625878288016131a1565b9350506040613636878288016130ec565b925050606085013567ffffffffffffffff81111561365757613656612f59565b5b613663878288016135be565b91505092959194509250565b6000806040838503121561368657613685612f54565b5b6000613694858286016130ec565b92505060206136a5858286016130ec565b9150509250929050565b600080604083850312156136c6576136c5612f54565b5b60006136d4858286016131a1565b92505060206136e5858286016131a1565b9150509250929050565b6000819050919050565b600061371461370f61370a8461312e565b6136ef565b61312e565b9050919050565b6000613726826136f9565b9050919050565b60006137388261371b565b9050919050565b6137488161372d565b82525050565b6000602082019050613763600083018461373f565b92915050565b7f4e487b7100000000000000000000000000000000000000000000000000000000600052602260045260246000fd5b600060028204905060018216806137b057607f821691505b6020821081036137c3576137c2613769565b5b50919050565b60006060820190506137de6000830186613160565b6137eb6020830185613249565b6137f86040830184613160565b949350505050565b7f596f7520617265206e6f7420746865206f776e6572206f66207468697320686f60008201527f7573650000000000000000000000000000000000000000000000000000000000602082015250565b600061385c602383613024565b915061386782613800565b604082019050919050565b6000602082019050818103600083015261388b8161384f565b9050919050565b7f4e487b7100000000000000000000000000000000000000000000000000000000600052601160045260246000fd5b60006138cc826130cb565b91506138d7836130cb565b92508282039050818111156138ef576138ee613892565b5b92915050565b7f4e487b7100000000000000000000000000000000000000000000000000000000600052601260045260246000fd5b600061392f826130cb565b915061393a836130cb565b92508261394a576139496138f5565b5b828204905092915050565b6000613960826130cb565b915061396b836130cb565b9250828202613979816130cb565b915082820484148315176139905761398f613892565b5b5092915050565b7f486f757365206973206e6f7420666f722073616c650000000000000000000000600082015250565b60006139cd601583613024565b91506139d882613997565b602082019050919050565b600060208201905081810360008301526139fc816139c0565b9050919050565b6000606082019050613a186000830186613160565b613a256020830185613160565b613a326040830184613249565b949350505050565b600081519050613a4981613406565b92915050565b600060208284031215613a6557613a64612f54565b5b6000613a7384828501613a3a565b91505092915050565b7f496e73756666696369656e74207061796d656e74000000000000000000000000600082015250565b6000613ab2601483613024565b9150613abd82613a7c565b602082019050919050565b60006020820190508181036000830152613ae181613aa5565b9050919050565b7f4f6e6c792074686520706c6174666f726d206f776e65722063616e206d696e74600082015250565b6000613b1e602083613024565b9150613b2982613ae8565b602082019050919050565b60006020820190508181036000830152613b4d81613b11565b9050919050565b6000613b5f826130cb565b91507fffffffffffffffffffffffffffffffffffffffffffffffffffffffffffffffff8203613b9157613b90613892565b5b600182019050919050565b7f4e487b7100000000000000000000000000000000000000000000000000000000600052603260045260246000fd5b600081905092915050565b6000613be182613019565b613beb8185613bcb565b9350613bfb818560208601613035565b80840191505092915050565b6000613c138285613bd6565b9150613c1f8284613bd6565b91508190509392505050565b7f5072696365206d7573742062652067726561746572207468616e207a65726f00600082015250565b6000613c61601f83613024565b9150613c6c82613c2b565b602082019050919050565b60006020820190508181036000830152613c9081613c54565b9050919050565b7f4e487b7100000000000000000000000000000000000000000000000000000000600052603160045260246000fd5b600081519050919050565b600082825260208201905092915050565b6000613ced82613cc6565b613cf78185613cd1565b9350613d07818560208601613035565b613d108161305f565b840191505092915050565b6000608082019050613d306000830187613160565b613d3d6020830186613160565b613d4a6040830185613249565b8181036060830152613d5c8184613ce2565b905095945050505050565b600081519050613d7681612f8a565b92915050565b600060208284031215613d9257613d91612f54565b5b6000613da084828501613d67565b91505092915050565b6000604082019050613dbe6000830185613160565b613dcb6020830184613249565b939250505056fea26469706673582212202194b41abb6b90f586a71d942d81172c30b3fe26c9c672c817f6b642af0d3a3a64736f6c6343000814003360806040523480156200001157600080fd5b506040518060400160405280600881526020017f48544b546f6b656e0000000000000000000000000000000000000000000000008152506040518060400160405280600381526020017f48544b000000000000000000000000000000000000000000000000000000000081525081600390816200008f91906200068c565b508060049081620000a191906200068c565b50505033600560006101000a81548173ffffffffffffffffffffffffffffffffffffffff021916908373ffffffffffffffffffffffffffffffffffffffff16021790555062000146600560009054906101000a900473ffffffffffffffffffffffffffffffffffffffff166200011c6200014c60201b60201c565b600a6200012a919062000903565b620f42406200013a919062000954565b6200015560201b60201c565b62000aa7565b60006012905090565b600073ffffffffffffffffffffffffffffffffffffffff168273ffffffffffffffffffffffffffffffffffffffff1603620001ca5760006040517fec442f05000000000000000000000000000000000000000000000000000000008152600401620001c19190620009e4565b60405180910390fd5b620001de60008383620001e260201b60201c565b5050565b600073ffffffffffffffffffffffffffffffffffffffff168373ffffffffffffffffffffffffffffffffffffffff1603620002385780600260008282546200022b919062000a01565b925050819055506200030e565b60008060008573ffffffffffffffffffffffffffffffffffffffff1673ffffffffffffffffffffffffffffffffffffffff16815260200190815260200160002054905081811015620002c7578381836040517fe450d38c000000000000000000000000000000000000000000000000000000008152600401620002be9392919062000a4d565b60405180910390fd5b8181036000808673ffffffffffffffffffffffffffffffffffffffff1673ffffffffffffffffffffffffffffffffffffffff16815260200190815260200160002081905550505b600073ffffffffffffffffffffffffffffffffffffffff168273ffffffffffffffffffffffffffffffffffffffff1603620003595780600260008282540392505081905550620003a6565b806000808473ffffffffffffffffffffffffffffffffffffffff1673ffffffffffffffffffffffffffffffffffffffff168152602001908152602001600020600082825401925050819055505b8173ffffffffffffffffffffffffffffffffffffffff168373ffffffffffffffffffffffffffffffffffffffff167fddf252ad1be2c89b69c2b068fc378daa952ba7f163c4a11628f55a4df523b3ef8360405162000405919062000a8a565b60405180910390a3505050565b600081519050919050565b7f4e487b7100000000000000000000000000000000000000000000000000000000600052604160045260246000fd5b7f4e487b7100000000000000000000000000000000000000000000000000000000600052602260045260246000fd5b600060028204905060018216806200049457607f821691505b602082108103620004aa57620004a96200044c565b5b50919050565b60008190508160005260206000209050919050565b60006020601f8301049050919050565b600082821b905092915050565b600060088302620005147fffffffffffffffffffffffffffffffffffffffffffffffffffffffffffffffff82620004d5565b620005208683620004d5565b95508019841693508086168417925050509392505050565b6000819050919050565b6000819050919050565b60006200056d62000567620005618462000538565b62000542565b62000538565b9050919050565b6000819050919050565b62000589836200054c565b620005a1620005988262000574565b848454620004e2565b825550505050565b600090565b620005b8620005a9565b620005c58184846200057e565b505050565b5b81811015620005ed57620005e1600082620005ae565b600181019050620005cb565b5050565b601f8211156200063c576200060681620004b0565b6200061184620004c5565b8101602085101562000621578190505b620006396200063085620004c5565b830182620005ca565b50505b505050565b600082821c905092915050565b6000620006616000198460080262000641565b1980831691505092915050565b60006200067c83836200064e565b9150826002028217905092915050565b620006978262000412565b67ffffffffffffffff811115620006b357620006b26200041d565b5b620006bf82546200047b565b620006cc828285620005f1565b600060209050601f831160018114620007045760008415620006ef578287015190505b620006fb85826200066e565b8655506200076b565b601f1984166200071486620004b0565b60005b828110156200073e5784890151825560018201915060208501945060208101905062000717565b868310156200075e57848901516200075a601f8916826200064e565b8355505b6001600288020188555050505b505050505050565b7f4e487b7100000000000000000000000000000000000000000000000000000000600052601160045260246000fd5b60008160011c9050919050565b6000808291508390505b60018511156200080157808604811115620007d957620007d862000773565b5b6001851615620007e95780820291505b8081029050620007f985620007a2565b9450620007b9565b94509492505050565b6000826200081c5760019050620008ef565b816200082c5760009050620008ef565b8160018114620008455760028114620008505762000886565b6001915050620008ef565b60ff84111562000865576200086462000773565b5b8360020a9150848211156200087f576200087e62000773565b5b50620008ef565b5060208310610133831016604e8410600b8410161715620008c05782820a905083811115620008ba57620008b962000773565b5b620008ef565b620008cf8484846001620007af565b92509050818404811115620008e957620008e862000773565b5b81810290505b9392505050565b600060ff82169050919050565b6000620009108262000538565b91506200091d83620008f6565b92506200094c7fffffffffffffffffffffffffffffffffffffffffffffffffffffffffffffffff84846200080a565b905092915050565b6000620009618262000538565b91506200096e8362000538565b92508282026200097e8162000538565b9150828204841483151762000998576200099762000773565b5b5092915050565b600073ffffffffffffffffffffffffffffffffffffffff82169050919050565b6000620009cc826200099f565b9050919050565b620009de81620009bf565b82525050565b6000602082019050620009fb6000830184620009d3565b92915050565b600062000a0e8262000538565b915062000a1b8362000538565b925082820190508082111562000a365762000a3562000773565b5b92915050565b62000a478162000538565b82525050565b600060608201905062000a646000830186620009d3565b62000a73602083018562000a3c565b62000a82604083018462000a3c565b949350505050565b600060208201905062000aa1600083018462000a3c565b92915050565b6114e38062000ab76000396000f3fe6080604052600436106100a75760003560e01c80636c11bcd3116100645780636c11bcd3146101d257806370a08231146101fb57806395d89b4114610238578063a9059cbb14610263578063d0febe4c146102a0578063dd62ed3e146102aa576100a7565b806306fdde03146100ac578063095ea7b3146100d757806318160ddd1461011457806323b872dd1461013f578063313ce5671461017c5780634df8ccb1146101a7575b600080fd5b3480156100b857600080fd5b506100c16102e7565b6040516100ce9190610dec565b60405180910390f35b3480156100e357600080fd5b506100fe60048036038101906100f99190610ea7565b610379565b60405161010b9190610f02565b60405180910390f35b34801561012057600080fd5b5061012961039c565b6040516101369190610f2c565b60405180910390f35b34801561014b57600080fd5b5061016660048036038101906101619190610f47565b6103a6565b6040516101739190610f02565b60405180910390f35b34801561018857600080fd5b506101916103d5565b60405161019e9190610fb6565b60405180910390f35b3480156101b357600080fd5b506101bc6103de565b6040516101c99190610fe0565b60405180910390f35b3480156101de57600080fd5b506101f960048036038101906101f49190610ffb565b610404565b005b34801561020757600080fd5b50610222600480360381019061021d9190611028565b6104d4565b60405161022f9190610f2c565b60405180910390f35b34801561024457600080fd5b5061024d61051c565b60405161025a9190610dec565b60405180910390f35b34801561026f57600080fd5b5061028a60048036038101906102859190610ea7565b6105ae565b6040516102979190610f02565b60405180910390f35b6102a86105d1565b005b3480156102b657600080fd5b506102d160048036038101906102cc9190611055565b610633565b6040516102de9190610f2c565b60405180910390f35b6060600380546102f6906110c4565b80601f0160208091040260200160405190810160405280929190818152602001828054610322906110c4565b801561036f5780601f106103445761010080835404028352916020019161036f565b820191906000526020600020905b81548152906001019060200180831161035257829003601f168201915b5050505050905090565b6000806103846106ba565b90506103918185856106c2565b600191505092915050565b6000600254905090565b6000806103b16106ba565b90506103be8582856106d4565b6103c9858585610768565b60019150509392505050565b60006012905090565b600560009054906101000a900473ffffffffffffffffffffffffffffffffffffffff1681565b8061040e336104d4565b101561044f576040517f08c379a000000000000000000000000000000000000000000000000000000000815260040161044690611141565b60405180910390fd5b60006103e88261045f91906111bf565b905061046b338361085c565b3373ffffffffffffffffffffffffffffffffffffffff166108fc61048d6103d5565b600a6104999190611323565b836104a4919061136e565b9081150290604051600060405180830381858888f193505050501580156104cf573d6000803e3d6000fd5b505050565b60008060008373ffffffffffffffffffffffffffffffffffffffff1673ffffffffffffffffffffffffffffffffffffffff168152602001908152602001600020549050919050565b60606004805461052b906110c4565b80601f0160208091040260200160405190810160405280929190818152602001828054610557906110c4565b80156105a45780601f10610579576101008083540402835291602001916105a4565b820191906000526020600020905b81548152906001019060200180831161058757829003601f168201915b5050505050905090565b6000806105b96106ba565b90506105c6818585610768565b600191505092915050565b60003411610614576040517f08c379a000000000000000000000000000000000000000000000000000000000815260040161060b90611422565b60405180910390fd5b60006103e834610624919061136e565b905061063033826108de565b50565b6000600160008473ffffffffffffffffffffffffffffffffffffffff1673ffffffffffffffffffffffffffffffffffffffff16815260200190815260200160002060008373ffffffffffffffffffffffffffffffffffffffff1673ffffffffffffffffffffffffffffffffffffffff16815260200190815260200160002054905092915050565b600033905090565b6106cf8383836001610960565b505050565b60006106e08484610633565b90507fffffffffffffffffffffffffffffffffffffffffffffffffffffffffffffffff81146107625781811015610752578281836040517ffb8f41b200000000000000000000000000000000000000000000000000000000815260040161074993929190611442565b60405180910390fd5b61076184848484036000610960565b5b50505050565b600073ffffffffffffffffffffffffffffffffffffffff168373ffffffffffffffffffffffffffffffffffffffff16036107da5760006040517f96c6fd1e0000000000000000000000000000000000000000000000000000000081526004016107d19190610fe0565b60405180910390fd5b600073ffffffffffffffffffffffffffffffffffffffff168273ffffffffffffffffffffffffffffffffffffffff160361084c5760006040517fec442f050000000000000000000000000000000000000000000000000000000081526004016108439190610fe0565b60405180910390fd5b610857838383610b37565b505050565b600073ffffffffffffffffffffffffffffffffffffffff168273ffffffffffffffffffffffffffffffffffffffff16036108ce5760006040517f96c6fd1e0000000000000000000000000000000000000000000000000000000081526004016108c59190610fe0565b60405180910390fd5b6108da82600083610b37565b5050565b600073ffffffffffffffffffffffffffffffffffffffff168273ffffffffffffffffffffffffffffffffffffffff16036109505760006040517fec442f050000000000000000000000000000000000000000000000000000000081526004016109479190610fe0565b60405180910390fd5b61095c60008383610b37565b5050565b600073ffffffffffffffffffffffffffffffffffffffff168473ffffffffffffffffffffffffffffffffffffffff16036109d25760006040517fe602df050000000000000000000000000000000000000000000000000000000081526004016109c99190610fe0565b60405180910390fd5b600073ffffffffffffffffffffffffffffffffffffffff168373ffffffffffffffffffffffffffffffffffffffff1603610a445760006040517f94280d62000000000000000000000000000000000000000000000000000000008152600401610a3b9190610fe0565b60405180910390fd5b81600160008673ffffffffffffffffffffffffffffffffffffffff1673ffffffffffffffffffffffffffffffffffffffff16815260200190815260200160002060008573ffffffffffffffffffffffffffffffffffffffff1673ffffffffffffffffffffffffffffffffffffffff168152602001908152602001600020819055508015610b31578273ffffffffffffffffffffffffffffffffffffffff168473ffffffffffffffffffffffffffffffffffffffff167f8c5be1e5ebec7d5bd14f71427d1e84f3dd0314c0f7b2291e5b200ac8c7c3b92584604051610b289190610f2c565b60405180910390a35b50505050565b600073ffffffffffffffffffffffffffffffffffffffff168373ffffffffffffffffffffffffffffffffffffffff1603610b89578060026000828254610b7d9190611479565b92505081905550610c5c565b60008060008573ffffffffffffffffffffffffffffffffffffffff1673ffffffffffffffffffffffffffffffffffffffff16815260200190815260200160002054905081811015610c15578381836040517fe450d38c000000000000000000000000000000000000000000000000000000008152600401610c0c93929190611442565b60405180910390fd5b8181036000808673ffffffffffffffffffffffffffffffffffffffff1673ffffffffffffffffffffffffffffffffffffffff16815260200190815260200160002081905550505b600073ffffffffffffffffffffffffffffffffffffffff168273ffffffffffffffffffffffffffffffffffffffff1603610ca55780600260008282540392505081905550610cf2565b806000808473ffffffffffffffffffffffffffffffffffffffff1673ffffffffffffffffffffffffffffffffffffffff168152602001908152602001600020600082825401925050819055505b8173ffffffffffffffffffffffffffffffffffffffff168373ffffffffffffffffffffffffffffffffffffffff167fddf252ad1be2c89b69c2b068fc378daa952ba7f163c4a11628f55a4df523b3ef83604051610d4f9190610f2c565b60405180910390a3505050565b600081519050919050565b600082825260208201905092915050565b60005b83811015610d96578082015181840152602081019050610d7b565b60008484015250505050565b6000601f19601f8301169050919050565b6000610dbe82610d5c565b610dc88185610d67565b9350610dd8818560208601610d78565b610de181610da2565b840191505092915050565b60006020820190508181036000830152610e068184610db3565b905092915050565b600080fd5b600073ffffffffffffffffffffffffffffffffffffffff82169050919050565b6000610e3e82610e13565b9050919050565b610e4e81610e33565b8114610e5957600080fd5b50565b600081359050610e6b81610e45565b92915050565b6000819050919050565b610e8481610e71565b8114610e8f57600080fd5b50565b600081359050610ea181610e7b565b92915050565b60008060408385031215610ebe57610ebd610e0e565b5b6000610ecc85828601610e5c565b9250506020610edd85828601610e92565b9150509250929050565b60008115159050919050565b610efc81610ee7565b82525050565b6000602082019050610f176000830184610ef3565b92915050565b610f2681610e71565b82525050565b6000602082019050610f416000830184610f1d565b92915050565b600080600060608486031215610f6057610f5f610e0e565b5b6000610f6e86828701610e5c565b9350506020610f7f86828701610e5c565b9250506040610f9086828701610e92565b9150509250925092565b600060ff82169050919050565b610fb081610f9a565b82525050565b6000602082019050610fcb6000830184610fa7565b92915050565b610fda81610e33565b82525050565b6000602082019050610ff56000830184610fd1565b92915050565b60006020828403121561101157611010610e0e565b5b600061101f84828501610e92565b91505092915050565b60006020828403121561103e5761103d610e0e565b5b600061104c84828501610e5c565b91505092915050565b6000806040838503121561106c5761106b610e0e565b5b600061107a85828601610e5c565b925050602061108b85828601610e5c565b9150509250929050565b7f4e487b7100000000000000000000000000000000000000000000000000000000600052602260045260246000fd5b600060028204905060018216806110dc57607f821691505b6020821081036110ef576110ee611095565b5b50919050565b7f496e73756666696369656e742048544b2062616c616e63650000000000000000600082015250565b600061112b601883610d67565b9150611136826110f5565b602082019050919050565b6000602082019050818103600083015261115a8161111e565b9050919050565b7f4e487b7100000000000000000000000000000000000000000000000000000000600052601260045260246000fd5b7f4e487b7100000000000000000000000000000000000000000000000000000000600052601160045260246000fd5b60006111ca82610e71565b91506111d583610e71565b9250826111e5576111e4611161565b5b828204905092915050565b60008160011c9050919050565b6000808291508390505b60018511156112475780860481111561122357611222611190565b5b60018516156112325780820291505b8081029050611240856111f0565b9450611207565b94509492505050565b600082611260576001905061131c565b8161126e576000905061131c565b8160018114611284576002811461128e576112bd565b600191505061131c565b60ff8411156112a05761129f611190565b5b8360020a9150848211156112b7576112b6611190565b5b5061131c565b5060208310610133831016604e8410600b84101617156112f25782820a9050838111156112ed576112ec611190565b5b61131c565b6112ff84848460016111fd565b9250905081840481111561131657611315611190565b5b81810290505b9392505050565b600061132e82610e71565b915061133983610f9a565b92506113667fffffffffffffffffffffffffffffffffffffffffffffffffffffffffffffffff8484611250565b905092915050565b600061137982610e71565b915061138483610e71565b925082820261139281610e71565b915082820484148315176113a9576113a8611190565b5b5092915050565b7f45544820616d6f756e74206d7573742062652067726561746572207468616e2060008201527f7a65726f00000000000000000000000000000000000000000000000000000000602082015250565b600061140c602483610d67565b9150611417826113b0565b604082019050919050565b6000602082019050818103600083015261143b816113ff565b9050919050565b60006060820190506114576000830186610fd1565b6114646020830185610f1d565b6114716040830184610f1d565b949350505050565b600061148482610e71565b915061148f83610e71565b92508282019050808211156114a7576114a6611190565b5b9291505056fea264697066735822122061041b14a7e7e68d1a44930821e712046ffb3111123e5c6387177b1f86d2190e64736f6c63430008140033",
  "linkReferences": {},
  "deployedLinkReferences": {}
}