{
  "_format": "hh-sol-artifact-1",
  "contractName": "BuyMyRoom",
  "sourceName": "contracts/BuyMyRoom.sol",
  "abi": [
    {
      "inputs": [],
      "stateMutability": "nonpayable",
      "type": "constructor"
    },
    {
      "inputs": [
        {
          "internalType": "address",
          "name": "sender",
          "type": "address"
        },
        {
          "internalType": "uint256",
          "name": "tokenId",
          "type": "uint256"
        },
        {
          "internalType": "address",
          "name": "owner",
          "type": "address"
        }
      ],
      "name": "ERC721IncorrectOwner",
      "type": "error"
    },
    {
      "inputs": [
        {
          "internalType": "address",
          "name": "operator",
          "type": "address"
        },
        {
          "internalType": "uint256",
          "name": "tokenId",
          "type": "uint256"
        }
      ],
      "name": "ERC721InsufficientApproval",
      "type": "error"
    },
    {
      "inputs": [
        {
          "internalType": "address",
          "name": "approver",
          "type": "address"
        }
      ],
      "name": "ERC721InvalidApprover",
      "type": "error"
    },
    {
      "inputs": [
        {
          "internalType": "address",
          "name": "operator",
          "type": "address"
        }
      ],
      "name": "ERC721InvalidOperator",
      "type": "error"
    },
    {
      "inputs": [
        {
          "internalType": "address",
          "name": "owner",
          "type": "address"
        }
      ],
      "name": "ERC721InvalidOwner",
      "type": "error"
    },
    {
      "inputs": [
        {
          "internalType": "address",
          "name": "receiver",
          "type": "address"
        }
      ],
      "name": "ERC721InvalidReceiver",
      "type": "error"
    },
    {
      "inputs": [
        {
          "internalType": "address",
          "name": "sender",
          "type": "address"
        }
      ],
      "name": "ERC721InvalidSender",
      "type": "error"
    },
    {
      "inputs": [
        {
          "internalType": "uint256",
          "name": "tokenId",
          "type": "uint256"
        }
      ],
      "name": "ERC721NonexistentToken",
      "type": "error"
    },
    {
      "anonymous": false,
      "inputs": [
        {
          "indexed": true,
          "internalType": "address",
          "name": "owner",
          "type": "address"
        },
        {
          "indexed": true,
          "internalType": "address",
          "name": "approved",
          "type": "address"
        },
        {
          "indexed": true,
          "internalType": "uint256",
          "name": "tokenId",
          "type": "uint256"
        }
      ],
      "name": "Approval",
      "type": "event"
    },
    {
      "anonymous": false,
      "inputs": [
        {
          "indexed": true,
          "internalType": "address",
          "name": "owner",
          "type": "address"
        },
        {
          "indexed": true,
          "internalType": "address",
          "name": "operator",
          "type": "address"
        },
        {
          "indexed": false,
          "internalType": "bool",
          "name": "approved",
          "type": "bool"
        }
      ],
      "name": "ApprovalForAll",
      "type": "event"
    },
    {
      "anonymous": false,
      "inputs": [
        {
          "indexed": true,
          "internalType": "uint256",
          "name": "tokenId",
          "type": "uint256"
        },
        {
          "indexed": true,
          "internalType": "address",
          "name": "owner",
          "type": "address"
        }
      ],
      "name": "HouseDelisted",
      "type": "event"
    },
    {
      "anonymous": false,
      "inputs": [
        {
          "indexed": true,
          "internalType": "uint256",
          "name": "tokenId",
          "type": "uint256"
        },
        {
          "indexed": false,
          "internalType": "uint256",
          "name": "price",
          "type": "uint256"
        },
        {
          "indexed": true,
          "internalType": "address",
          "name": "owner",
          "type": "address"
        }
      ],
      "name": "HouseListed",
      "type": "event"
    },
    {
      "anonymous": false,
      "inputs": [
        {
          "indexed": true,
          "internalType": "uint256",
          "name": "tokenId",
          "type": "uint256"
        },
        {
          "indexed": true,
          "internalType": "address",
          "name": "newOwner",
          "type": "address"
        },
        {
          "indexed": false,
          "internalType": "uint256",
          "name": "price",
          "type": "uint256"
        }
      ],
      "name": "HouseSold",
      "type": "event"
    },
    {
      "anonymous": false,
      "inputs": [
        {
          "indexed": true,
          "internalType": "address",
          "name": "from",
          "type": "address"
        },
        {
          "indexed": true,
          "internalType": "address",
          "name": "to",
          "type": "address"
        },
        {
          "indexed": true,
          "internalType": "uint256",
          "name": "tokenId",
          "type": "uint256"
        }
      ],
      "name": "Transfer",
      "type": "event"
    },
    {
      "inputs": [
        {
          "internalType": "address",
          "name": "to",
          "type": "address"
        },
        {
          "internalType": "uint256",
          "name": "tokenId",
          "type": "uint256"
        }
      ],
      "name": "approve",
      "outputs": [],
      "stateMutability": "nonpayable",
      "type": "function"
    },
    {
      "inputs": [
        {
          "internalType": "address",
          "name": "owner",
          "type": "address"
        }
      ],
      "name": "balanceOf",
      "outputs": [
        {
          "internalType": "uint256",
          "name": "",
          "type": "uint256"
        }
      ],
      "stateMutability": "view",
      "type": "function"
    },
    {
      "inputs": [
        {
          "internalType": "uint256",
          "name": "tokenId",
          "type": "uint256"
        }
      ],
      "name": "buyHouseWithETH",
      "outputs": [],
      "stateMutability": "payable",
      "type": "function"
    },
    {
      "inputs": [
        {
          "internalType": "uint256",
          "name": "tokenId",
          "type": "uint256"
        }
      ],
      "name": "buyHouseWithHTK",
      "outputs": [],
      "stateMutability": "nonpayable",
      "type": "function"
    },
    {
      "inputs": [
        {
          "internalType": "uint256",
          "name": "tokenId",
          "type": "uint256"
        }
      ],
      "name": "calculateFee",
      "outputs": [
        {
          "internalType": "uint256",
          "name": "",
          "type": "uint256"
        }
      ],
      "stateMutability": "view",
      "type": "function"
    },
    {
      "inputs": [
        {
          "internalType": "uint256",
          "name": "tokenId",
          "type": "uint256"
        }
      ],
      "name": "calculateFeeHTK",
      "outputs": [
        {
          "internalType": "uint256",
          "name": "",
          "type": "uint256"
        }
      ],
      "stateMutability": "view",
      "type": "function"
    },
    {
      "inputs": [
        {
          "internalType": "uint256",
          "name": "tokenId",
          "type": "uint256"
        }
      ],
      "name": "delistHouse",
      "outputs": [],
      "stateMutability": "nonpayable",
      "type": "function"
    },
    {
      "inputs": [],
      "name": "feePercentage",
      "outputs": [
        {
          "internalType": "uint256",
          "name": "",
          "type": "uint256"
        }
      ],
      "stateMutability": "view",
      "type": "function"
    },
    {
      "inputs": [
        {
          "internalType": "uint256",
          "name": "tokenId",
          "type": "uint256"
        }
      ],
      "name": "getApproved",
      "outputs": [
        {
          "internalType": "address",
          "name": "",
          "type": "address"
        }
      ],
      "stateMutability": "view",
      "type": "function"
    },
    {
      "inputs": [],
      "name": "getHousesForSale",
      "outputs": [
        {
          "components": [
            {
              "internalType": "uint256",
              "name": "tokenId",
              "type": "uint256"
            },
            {
              "internalType": "address",
              "name": "owner",
              "type": "address"
            },
            {
              "internalType": "uint256",
              "name": "price",
              "type": "uint256"
            },
            {
              "internalType": "uint256",
              "name": "listedTimestamp",
              "type": "uint256"
            },
            {
              "internalType": "bool",
              "name": "isForSale",
              "type": "bool"
            }
          ],
          "internalType": "struct BuyMyRoom.HouseWithTokenId[]",
          "name": "",
          "type": "tuple[]"
        }
      ],
      "stateMutability": "view",
      "type": "function"
    },
    {
      "inputs": [],
      "name": "getMyHouses",
      "outputs": [
        {
          "components": [
            {
              "internalType": "uint256",
              "name": "tokenId",
              "type": "uint256"
            },
            {
              "internalType": "address",
              "name": "owner",
              "type": "address"
            },
            {
              "internalType": "uint256",
              "name": "price",
              "type": "uint256"
            },
            {
              "internalType": "uint256",
              "name": "listedTimestamp",
              "type": "uint256"
            },
            {
              "internalType": "bool",
              "name": "isForSale",
              "type": "bool"
            }
          ],
          "internalType": "struct BuyMyRoom.HouseWithTokenId[]",
          "name": "",
          "type": "tuple[]"
        }
      ],
      "stateMutability": "view",
      "type": "function"
    },
    {
      "inputs": [],
      "name": "getPlatformOwner",
      "outputs": [
        {
          "internalType": "address",
          "name": "",
          "type": "address"
        }
      ],
      "stateMutability": "view",
      "type": "function"
    },
    {
      "inputs": [],
      "name": "houseCount",
      "outputs": [
        {
          "internalType": "uint256",
          "name": "",
          "type": "uint256"
        }
      ],
      "stateMutability": "view",
      "type": "function"
    },
    {
      "inputs": [
        {
          "internalType": "uint256",
          "name": "",
          "type": "uint256"
        }
      ],
      "name": "houses",
      "outputs": [
        {
          "internalType": "address",
          "name": "owner",
          "type": "address"
        },
        {
          "internalType": "uint256",
          "name": "price",
          "type": "uint256"
        },
        {
          "internalType": "uint256",
          "name": "listedTimestamp",
          "type": "uint256"
        },
        {
          "internalType": "bool",
          "name": "isForSale",
          "type": "bool"
        }
      ],
      "stateMutability": "view",
      "type": "function"
    },
    {
      "inputs": [],
      "name": "htkToken",
      "outputs": [
        {
          "internalType": "contract HTKToken",
          "name": "",
          "type": "address"
        }
      ],
      "stateMutability": "view",
      "type": "function"
    },
    {
      "inputs": [
        {
          "internalType": "address",
          "name": "owner",
          "type": "address"
        },
        {
          "internalType": "address",
          "name": "operator",
          "type": "address"
        }
      ],
      "name": "isApprovedForAll",
      "outputs": [
        {
          "internalType": "bool",
          "name": "",
          "type": "bool"
        }
      ],
      "stateMutability": "view",
      "type": "function"
    },
    {
      "inputs": [
        {
          "internalType": "uint256",
          "name": "tokenId",
          "type": "uint256"
        },
        {
          "internalType": "uint256",
          "name": "price",
          "type": "uint256"
        }
      ],
      "name": "listHouseForSale",
      "outputs": [],
      "stateMutability": "nonpayable",
      "type": "function"
    },
    {
      "inputs": [
        {
          "internalType": "address",
          "name": "to",
          "type": "address"
        }
      ],
      "name": "mintHouse",
      "outputs": [],
      "stateMutability": "nonpayable",
      "type": "function"
    },
    {
      "inputs": [],
      "name": "name",
      "outputs": [
        {
          "internalType": "string",
          "name": "",
          "type": "string"
        }
      ],
      "stateMutability": "view",
      "type": "function"
    },
    {
      "inputs": [
        {
          "internalType": "address",
          "name": "",
          "type": "address"
        },
        {
          "internalType": "uint256",
          "name": "",
          "type": "uint256"
        }
      ],
      "name": "ownerHouses",
      "outputs": [
        {
          "internalType": "uint256",
          "name": "",
          "type": "uint256"
        }
      ],
      "stateMutability": "view",
      "type": "function"
    },
    {
      "inputs": [
        {
          "internalType": "uint256",
          "name": "tokenId",
          "type": "uint256"
        }
      ],
      "name": "ownerOf",
      "outputs": [
        {
          "internalType": "address",
          "name": "",
          "type": "address"
        }
      ],
      "stateMutability": "view",
      "type": "function"
    },
    {
      "inputs": [],
      "name": "platformOwner",
      "outputs": [
        {
          "internalType": "address",
          "name": "",
          "type": "address"
        }
      ],
      "stateMutability": "view",
      "type": "function"
    },
    {
      "inputs": [
        {
          "internalType": "address",
          "name": "from",
          "type": "address"
        },
        {
          "internalType": "address",
          "name": "to",
          "type": "address"
        },
        {
          "internalType": "uint256",
          "name": "tokenId",
          "type": "uint256"
        }
      ],
      "name": "safeTransferFrom",
      "outputs": [],
      "stateMutability": "nonpayable",
      "type": "function"
    },
    {
      "inputs": [
        {
          "internalType": "address",
          "name": "from",
          "type": "address"
        },
        {
          "internalType": "address",
          "name": "to",
          "type": "address"
        },
        {
          "internalType": "uint256",
          "name": "tokenId",
          "type": "uint256"
        },
        {
          "internalType": "bytes",
          "name": "data",
          "type": "bytes"
        }
      ],
      "name": "safeTransferFrom",
      "outputs": [],
      "stateMutability": "nonpayable",
      "type": "function"
    },
    {
      "inputs": [
        {
          "internalType": "address",
          "name": "operator",
          "type": "address"
        },
        {
          "internalType": "bool",
          "name": "approved",
          "type": "bool"
        }
      ],
      "name": "setApprovalForAll",
      "outputs": [],
      "stateMutability": "nonpayable",
      "type": "function"
    },
    {
      "inputs": [
        {
          "internalType": "bytes4",
          "name": "interfaceId",
          "type": "bytes4"
        }
      ],
      "name": "supportsInterface",
      "outputs": [
        {
          "internalType": "bool",
          "name": "",
          "type": "bool"
        }
      ],
      "stateMutability": "view",
      "type": "function"
    },
    {
      "inputs": [],
      "name": "symbol",
      "outputs": [
        {
          "internalType": "string",
          "name": "",
          "type": "string"
        }
      ],
      "stateMutability": "view",
      "type": "function"
    },
    {
      "inputs": [
        {
          "internalType": "uint256",
          "name": "tokenId",
          "type": "uint256"
        }
      ],
      "name": "tokenURI",
      "outputs": [
        {
          "internalType": "string",
          "name": "",
          "type": "string"
        }
      ],
      "stateMutability": "view",
      "type": "function"
    },
    {
      "inputs": [
        {
          "internalType": "address",
          "name": "from",
          "type": "address"
        },
        {
          "internalType": "address",
          "name": "to",
          "type": "address"
        },
        {
          "internalType": "uint256",
          "name": "tokenId",
          "type": "uint256"
        }
      ],
      "name": "transferFrom",
      "outputs": [],
      "stateMutability": "nonpayable",
      "type": "function"
    }
  ],
  "bytecode": "0x608060405260006007556005600a553480156200001b57600080fd5b506040518060400160405280600981526020017f4275794d79526f6f6d00000000000000000000000000000000000000000000008152506040518060400160405280600381526020017f424d5200000000000000000000000000000000000000000000000000000000008152508160009081620000999190620003e9565b508060019081620000ab9190620003e9565b50505033600b60006101000a81548173ffffffffffffffffffffffffffffffffffffffff021916908373ffffffffffffffffffffffffffffffffffffffff160217905550604051620000fd9062000161565b604051809103906000f0801580156200011a573d6000803e3d6000fd5b50600660006101000a81548173ffffffffffffffffffffffffffffffffffffffff021916908373ffffffffffffffffffffffffffffffffffffffff160217905550620004d0565b61195780620041c083390190565b600081519050919050565b7f4e487b7100000000000000000000000000000000000000000000000000000000600052604160045260246000fd5b7f4e487b7100000000000000000000000000000000000000000000000000000000600052602260045260246000fd5b60006002820490506001821680620001f157607f821691505b602082108103620002075762000206620001a9565b5b50919050565b60008190508160005260206000209050919050565b60006020601f8301049050919050565b600082821b905092915050565b600060088302620002717fffffffffffffffffffffffffffffffffffffffffffffffffffffffffffffffff8262000232565b6200027d868362000232565b95508019841693508086168417925050509392505050565b6000819050919050565b6000819050919050565b6000620002ca620002c4620002be8462000295565b6200029f565b62000295565b9050919050565b6000819050919050565b620002e683620002a9565b620002fe620002f582620002d1565b8484546200023f565b825550505050565b600090565b6200031562000306565b62000322818484620002db565b505050565b5b818110156200034a576200033e6000826200030b565b60018101905062000328565b5050565b601f821115620003995762000363816200020d565b6200036e8462000222565b810160208510156200037e578190505b620003966200038d8562000222565b83018262000327565b50505b505050565b600082821c905092915050565b6000620003be600019846008026200039e565b1980831691505092915050565b6000620003d98383620003ab565b9150826002028217905092915050565b620003f4826200016f565b67ffffffffffffffff81111562000410576200040f6200017a565b5b6200041c8254620001d8565b620004298282856200034e565b600060209050601f8311600181146200046157600084156200044c578287015190505b620004588582620003cb565b865550620004c8565b601f19841662000471866200020d565b60005b828110156200049b5784890151825560018201915060208501945060208101905062000474565b86831015620004bb5784890151620004b7601f891682620003ab565b8355505b6001600288020188555050505b505050505050565b613ce080620004e06000396000f3fe6080604052600436106101c25760003560e01c806395d89b41116100f7578063aeda852f11610095578063c87b56dd11610064578063c87b56dd1461066e578063c9fd96ad146106ab578063e985e9c5146106d4578063ec5f335214610711576101c2565b8063aeda852f146105af578063b14f1afd146105ef578063b88d4fde1461061a578063bd74f8b114610643576101c2565b80639e4ffa7f116100d15780639e4ffa7f14610505578063a001ecdd14610530578063a22cb4651461055b578063ab975e3b14610584576101c2565b806395d89b41146104745780639946f0841461049f57806399a5d747146104c8576101c2565b806342842e0e116101645780634d79658b1161013e5780634d79658b146103b35780634df8ccb1146103cf5780636352211e146103fa57806370a0823114610437576101c2565b806342842e0e146103245780634bbb74411461034d5780634cdea0a41461038a576101c2565b8063095ea7b3116101a0578063095ea7b31461026c57806323b872dd146102955780633c3b0b4a146102be578063406f008a146102e7576101c2565b806301ffc9a7146101c757806306fdde0314610204578063081812fc1461022f575b600080fd5b3480156101d357600080fd5b506101ee60048036038101906101e99190612e8e565b61073c565b6040516101fb9190612ed6565b60405180910390f35b34801561021057600080fd5b5061021961081e565b6040516102269190612f81565b60405180910390f35b34801561023b57600080fd5b5061025660048036038101906102519190612fd9565b6108b0565b6040516102639190613047565b60405180910390f35b34801561027857600080fd5b50610293600480360381019061028e919061308e565b6108cc565b005b3480156102a157600080fd5b506102bc60048036038101906102b791906130ce565b6108e2565b005b3480156102ca57600080fd5b506102e560048036038101906102e09190612fd9565b6109e4565b005b3480156102f357600080fd5b5061030e60048036038101906103099190612fd9565b610aec565b60405161031b9190613130565b60405180910390f35b34801561033057600080fd5b5061034b600480360381019061034691906130ce565b610bbb565b005b34801561035957600080fd5b50610374600480360381019061036f919061308e565b610bdb565b6040516103819190613130565b60405180910390f35b34801561039657600080fd5b506103b160048036038101906103ac9190612fd9565b610c0c565b005b6103cd60048036038101906103c89190612fd9565b610f86565b005b3480156103db57600080fd5b506103e461128c565b6040516103f19190613047565b60405180910390f35b34801561040657600080fd5b50610421600480360381019061041c9190612fd9565b6112b2565b60405161042e9190613047565b60405180910390f35b34801561044357600080fd5b5061045e6004803603810190610459919061314b565b6112c4565b60405161046b9190613130565b60405180910390f35b34801561048057600080fd5b5061048961137e565b6040516104969190612f81565b60405180910390f35b3480156104ab57600080fd5b506104c660048036038101906104c1919061314b565b611410565b005b3480156104d457600080fd5b506104ef60048036038101906104ea9190612fd9565b6115fe565b6040516104fc9190613130565b60405180910390f35b34801561051157600080fd5b5061051a6116b3565b60405161052791906132bc565b60405180910390f35b34801561053c57600080fd5b506105456118b2565b6040516105529190613130565b60405180910390f35b34801561056757600080fd5b50610582600480360381019061057d919061330a565b6118b8565b005b34801561059057600080fd5b506105996118ce565b6040516105a69190613047565b60405180910390f35b3480156105bb57600080fd5b506105d660048036038101906105d19190612fd9565b6118f8565b6040516105e6949392919061334a565b60405180910390f35b3480156105fb57600080fd5b50610604611955565b60405161061191906132bc565b60405180910390f35b34801561062657600080fd5b50610641600480360381019061063c91906134c4565b611b6c565b005b34801561064f57600080fd5b50610658611b89565b6040516106659190613130565b60405180910390f35b34801561067a57600080fd5b5061069560048036038101906106909190612fd9565b611b8f565b6040516106a29190612f81565b60405180910390f35b3480156106b757600080fd5b506106d260048036038101906106cd9190613547565b611bf8565b005b3480156106e057600080fd5b506106fb60048036038101906106f69190613587565b611d69565b6040516107089190612ed6565b60405180910390f35b34801561071d57600080fd5b50610726611dfd565b6040516107339190613626565b60405180910390f35b60007f80ac58cd000000000000000000000000000000000000000000000000000000007bffffffffffffffffffffffffffffffffffffffffffffffffffffffff1916827bffffffffffffffffffffffffffffffffffffffffffffffffffffffff1916148061080757507f5b5e139f000000000000000000000000000000000000000000000000000000007bffffffffffffffffffffffffffffffffffffffffffffffffffffffff1916827bffffffffffffffffffffffffffffffffffffffffffffffffffffffff1916145b80610817575061081682611e23565b5b9050919050565b60606000805461082d90613670565b80601f016020809104026020016040519081016040528092919081815260200182805461085990613670565b80156108a65780601f1061087b576101008083540402835291602001916108a6565b820191906000526020600020905b81548152906001019060200180831161088957829003601f168201915b5050505050905090565b60006108bb82611e8d565b506108c582611f15565b9050919050565b6108de82826108d9611f52565b611f5a565b5050565b600073ffffffffffffffffffffffffffffffffffffffff168273ffffffffffffffffffffffffffffffffffffffff16036109545760006040517f64a0ae9200000000000000000000000000000000000000000000000000000000815260040161094b9190613047565b60405180910390fd5b60006109688383610963611f52565b611f6c565b90508373ffffffffffffffffffffffffffffffffffffffff168173ffffffffffffffffffffffffffffffffffffffff16146109de578382826040517f64283d7b0000000000000000000000000000000000000000000000000000000081526004016109d5939291906136a1565b60405180910390fd5b50505050565b3373ffffffffffffffffffffffffffffffffffffffff16610a04826112b2565b73ffffffffffffffffffffffffffffffffffffffff1614610a5a576040517f08c379a0000000000000000000000000000000000000000000000000000000008152600401610a519061374a565b60405180910390fd5b60006008600083815260200190815260200160002060030160006101000a81548160ff021916908315150217905550600060086000838152602001908152602001600020600201819055503373ffffffffffffffffffffffffffffffffffffffff16817f729606fdcae8235b5150dcf1480e222ab8cf12d032ace131cb8baeacf9ec970660405160405180910390a350565b60008062015180600860008581526020019081526020016000206002015442610b159190613799565b610b1f91906137fc565b9050600061271082600a546103e86008600089815260200190815260200160002060010154610b4e919061382d565b610b58919061382d565b610b62919061382d565b610b6c91906137fc565b9050600060026103e86008600088815260200190815260200160002060010154610b96919061382d565b610ba091906137fc565b9050808211610baf5781610bb1565b805b9350505050919050565b610bd683838360405180602001604052806000815250611b6c565b505050565b60096020528160005260406000208181548110610bf757600080fd5b90600052602060002001600091509150505481565b6008600082815260200190815260200160002060030160009054906101000a900460ff16610c6f576040517f08c379a0000000000000000000000000000000000000000000000000000000008152600401610c66906138bb565b60405180910390fd5b60006103e86008600084815260200190815260200160002060010154610c95919061382d565b90506000610ca2836112b2565b90506000610caf84610aec565b905060008184610cbf9190613799565b9050600660009054906101000a900473ffffffffffffffffffffffffffffffffffffffff1673ffffffffffffffffffffffffffffffffffffffff166323b872dd33610d09886112b2565b846040518463ffffffff1660e01b8152600401610d28939291906138db565b6020604051808303816000875af1158015610d47573d6000803e3d6000fd5b505050506040513d601f19601f82011682018060405250810190610d6b9190613927565b50600660009054906101000a900473ffffffffffffffffffffffffffffffffffffffff1673ffffffffffffffffffffffffffffffffffffffff166323b872dd33600b60009054906101000a900473ffffffffffffffffffffffffffffffffffffffff16856040518463ffffffff1660e01b8152600401610ded939291906138db565b6020604051808303816000875af1158015610e0c573d6000803e3d6000fd5b505050506040513d601f19601f82011682018060405250810190610e309190613927565b50610e3c833387612186565b336008600087815260200190815260200160002060000160006101000a81548173ffffffffffffffffffffffffffffffffffffffff021916908373ffffffffffffffffffffffffffffffffffffffff16021790555060006008600087815260200190815260200160002060030160006101000a81548160ff021916908315150217905550600960003373ffffffffffffffffffffffffffffffffffffffff1673ffffffffffffffffffffffffffffffffffffffff168152602001908152602001600020859080600181540180825580915050600190039060005260206000200160009091909190915055610f3083866122f3565b3373ffffffffffffffffffffffffffffffffffffffff16857f7d8ae52f455fef56a09ce9edb1dc811247eeee52705033ef77eb1dbf84fb9cbd86604051610f779190613130565b60405180910390a35050505050565b6008600082815260200190815260200160002060030160009054906101000a900460ff16610fe9576040517f08c379a0000000000000000000000000000000000000000000000000000000008152600401610fe0906138bb565b60405180910390fd5b6008600082815260200190815260200160002060010154341015611042576040517f08c379a0000000000000000000000000000000000000000000000000000000008152600401611039906139a0565b60405180910390fd5b600061104d826112b2565b90506000600860008481526020019081526020016000206001015490506000611075846115fe565b9050600081836110859190613799565b9050611092843387612186565b8373ffffffffffffffffffffffffffffffffffffffff166108fc829081150290604051600060405180830381858888f193505050501580156110d8573d6000803e3d6000fd5b50600b60009054906101000a900473ffffffffffffffffffffffffffffffffffffffff1673ffffffffffffffffffffffffffffffffffffffff166108fc839081150290604051600060405180830381858888f19350505050158015611141573d6000803e3d6000fd5b50336008600087815260200190815260200160002060000160006101000a81548173ffffffffffffffffffffffffffffffffffffffff021916908373ffffffffffffffffffffffffffffffffffffffff16021790555060006008600087815260200190815260200160002060030160006101000a81548160ff021916908315150217905550600960003373ffffffffffffffffffffffffffffffffffffffff1673ffffffffffffffffffffffffffffffffffffffff16815260200190815260200160002085908060018154018082558091505060019003906000526020600020016000909190919091505561123684866122f3565b3373ffffffffffffffffffffffffffffffffffffffff16857f7d8ae52f455fef56a09ce9edb1dc811247eeee52705033ef77eb1dbf84fb9cbd8560405161127d9190613130565b60405180910390a35050505050565b600b60009054906101000a900473ffffffffffffffffffffffffffffffffffffffff1681565b60006112bd82611e8d565b9050919050565b60008073ffffffffffffffffffffffffffffffffffffffff168273ffffffffffffffffffffffffffffffffffffffff16036113375760006040517f89c62b6400000000000000000000000000000000000000000000000000000000815260040161132e9190613047565b60405180910390fd5b600360008373ffffffffffffffffffffffffffffffffffffffff1673ffffffffffffffffffffffffffffffffffffffff168152602001908152602001600020549050919050565b60606001805461138d90613670565b80601f01602080910402602001604051908101604052809291908181526020018280546113b990613670565b80156114065780601f106113db57610100808354040283529160200191611406565b820191906000526020600020905b8154815290600101906020018083116113e957829003601f168201915b5050505050905090565b600b60009054906101000a900473ffffffffffffffffffffffffffffffffffffffff1673ffffffffffffffffffffffffffffffffffffffff163373ffffffffffffffffffffffffffffffffffffffff16146114a0576040517f08c379a000000000000000000000000000000000000000000000000000000000815260040161149790613a0c565b60405180910390fd5b600760008154809291906114b390613a2c565b91905055506114c4816007546123fd565b60405180608001604052808273ffffffffffffffffffffffffffffffffffffffff16815260200160008152602001600081526020016000151581525060086000600754815260200190815260200160002060008201518160000160006101000a81548173ffffffffffffffffffffffffffffffffffffffff021916908373ffffffffffffffffffffffffffffffffffffffff160217905550602082015181600101556040820151816002015560608201518160030160006101000a81548160ff021916908315150217905550905050600960008273ffffffffffffffffffffffffffffffffffffffff1673ffffffffffffffffffffffffffffffffffffffff168152602001908152602001600020600754908060018154018082558091505060019003906000526020600020016000909190919091505550565b600080620151806008600085815260200190815260200160002060020154426116279190613799565b61163191906137fc565b9050600061271082600a54600860008881526020019081526020016000206001015461165d919061382d565b611667919061382d565b61167191906137fc565b905060006002600860008781526020019081526020016000206001015461169891906137fc565b90508082116116a757816116a9565b805b9350505050919050565b6060600080600190505b6007548111611711576008600082815260200190815260200160002060030160009054906101000a900460ff16156116fe5781806116fa90613a2c565b9250505b808061170990613a2c565b9150506116bd565b5060008167ffffffffffffffff81111561172e5761172d613399565b5b60405190808252806020026020018201604052801561176757816020015b611754612ddb565b81526020019060019003908161174c5790505b509050600080600190505b60075481116118a8576008600082815260200190815260200160002060030160009054906101000a900460ff1615611895576040518060a001604052808281526020016008600084815260200190815260200160002060000160009054906101000a900473ffffffffffffffffffffffffffffffffffffffff1673ffffffffffffffffffffffffffffffffffffffff16815260200160086000848152602001908152602001600020600101548152602001600860008481526020019081526020016000206002015481526020016008600084815260200190815260200160002060030160009054906101000a900460ff16151581525083838151811061187b5761187a613a74565b5b6020026020010181905250818061189190613a2c565b9250505b80806118a090613a2c565b915050611772565b5081935050505090565b600a5481565b6118ca6118c3611f52565b83836124f6565b5050565b6000600b60009054906101000a900473ffffffffffffffffffffffffffffffffffffffff16905090565b60086020528060005260406000206000915090508060000160009054906101000a900473ffffffffffffffffffffffffffffffffffffffff16908060010154908060020154908060030160009054906101000a900460ff16905084565b60606000600960003373ffffffffffffffffffffffffffffffffffffffff1673ffffffffffffffffffffffffffffffffffffffff1681526020019081526020016000208054806020026020016040519081016040528092919081815260200182805480156119e257602002820191906000526020600020905b8154815260200190600101908083116119ce575b505050505090506000815167ffffffffffffffff811115611a0657611a05613399565b5b604051908082528060200260200182016040528015611a3f57816020015b611a2c612ddb565b815260200190600190039081611a245790505b50905060005b8251811015611b63576000838281518110611a6357611a62613a74565b5b602002602001015190506040518060a001604052808281526020016008600084815260200190815260200160002060000160009054906101000a900473ffffffffffffffffffffffffffffffffffffffff1673ffffffffffffffffffffffffffffffffffffffff16815260200160086000848152602001908152602001600020600101548152602001600860008481526020019081526020016000206002015481526020016008600084815260200190815260200160002060030160009054906101000a900460ff161515815250838381518110611b4457611b43613a74565b5b6020026020010181905250508080611b5b90613a2c565b915050611a45565b50809250505090565b611b778484846108e2565b611b8384848484612665565b50505050565b60075481565b6060611b9a82611e8d565b506000611ba561281c565b90506000815111611bc55760405180602001604052806000815250611bf0565b80611bcf84612833565b604051602001611be0929190613adf565b6040516020818303038152906040525b915050919050565b3373ffffffffffffffffffffffffffffffffffffffff16611c18836112b2565b73ffffffffffffffffffffffffffffffffffffffff1614611c6e576040517f08c379a0000000000000000000000000000000000000000000000000000000008152600401611c659061374a565b60405180910390fd5b60008111611cb1576040517f08c379a0000000000000000000000000000000000000000000000000000000008152600401611ca890613b4f565b60405180910390fd5b80600860008481526020019081526020016000206001018190555042600860008481526020019081526020016000206002018190555060016008600084815260200190815260200160002060030160006101000a81548160ff0219169083151502179055503373ffffffffffffffffffffffffffffffffffffffff16827f60b3e540896cf4a419e7b7274a1f1282223f5d92ca6f0152cf820fe457fb484383604051611d5d9190613130565b60405180910390a35050565b6000600560008473ffffffffffffffffffffffffffffffffffffffff1673ffffffffffffffffffffffffffffffffffffffff16815260200190815260200160002060008373ffffffffffffffffffffffffffffffffffffffff1673ffffffffffffffffffffffffffffffffffffffff16815260200190815260200160002060009054906101000a900460ff16905092915050565b600660009054906101000a900473ffffffffffffffffffffffffffffffffffffffff1681565b60007f01ffc9a7000000000000000000000000000000000000000000000000000000007bffffffffffffffffffffffffffffffffffffffffffffffffffffffff1916827bffffffffffffffffffffffffffffffffffffffffffffffffffffffff1916149050919050565b600080611e9983612901565b9050600073ffffffffffffffffffffffffffffffffffffffff168173ffffffffffffffffffffffffffffffffffffffff1603611f0c57826040517f7e273289000000000000000000000000000000000000000000000000000000008152600401611f039190613130565b60405180910390fd5b80915050919050565b60006004600083815260200190815260200160002060009054906101000a900473ffffffffffffffffffffffffffffffffffffffff169050919050565b600033905090565b611f67838383600161293e565b505050565b600080611f7884612901565b9050600073ffffffffffffffffffffffffffffffffffffffff168373ffffffffffffffffffffffffffffffffffffffff1614611fba57611fb9818486612b03565b5b600073ffffffffffffffffffffffffffffffffffffffff168173ffffffffffffffffffffffffffffffffffffffff161461204b57611ffc60008560008061293e565b6001600360008373ffffffffffffffffffffffffffffffffffffffff1673ffffffffffffffffffffffffffffffffffffffff168152602001908152602001600020600082825403925050819055505b600073ffffffffffffffffffffffffffffffffffffffff168573ffffffffffffffffffffffffffffffffffffffff16146120ce576001600360008773ffffffffffffffffffffffffffffffffffffffff1673ffffffffffffffffffffffffffffffffffffffff168152602001908152602001600020600082825401925050819055505b846002600086815260200190815260200160002060006101000a81548173ffffffffffffffffffffffffffffffffffffffff021916908373ffffffffffffffffffffffffffffffffffffffff160217905550838573ffffffffffffffffffffffffffffffffffffffff168273ffffffffffffffffffffffffffffffffffffffff167fddf252ad1be2c89b69c2b068fc378daa952ba7f163c4a11628f55a4df523b3ef60405160405180910390a4809150509392505050565b600073ffffffffffffffffffffffffffffffffffffffff168273ffffffffffffffffffffffffffffffffffffffff16036121f85760006040517f64a0ae920000000000000000000000000000000000000000000000000000000081526004016121ef9190613047565b60405180910390fd5b600061220683836000611f6c565b9050600073ffffffffffffffffffffffffffffffffffffffff168173ffffffffffffffffffffffffffffffffffffffff160361227957816040517f7e2732890000000000000000000000000000000000000000000000000000000081526004016122709190613130565b60405180910390fd5b8373ffffffffffffffffffffffffffffffffffffffff168173ffffffffffffffffffffffffffffffffffffffff16146122ed578382826040517f64283d7b0000000000000000000000000000000000000000000000000000000081526004016122e4939291906136a1565b60405180910390fd5b50505050565b6000600960008473ffffffffffffffffffffffffffffffffffffffff1673ffffffffffffffffffffffffffffffffffffffff168152602001908152602001600020905060005b81805490508110156123f7578282828154811061235957612358613a74565b5b9060005260206000200154036123e457816001838054905061237b9190613799565b8154811061238c5761238b613a74565b5b90600052602060002001548282815481106123aa576123a9613a74565b5b9060005260206000200181905550818054806123c9576123c8613b6f565b5b600190038181906000526020600020016000905590556123f7565b80806123ef90613a2c565b915050612339565b50505050565b600073ffffffffffffffffffffffffffffffffffffffff168273ffffffffffffffffffffffffffffffffffffffff160361246f5760006040517f64a0ae920000000000000000000000000000000000000000000000000000000081526004016124669190613047565b60405180910390fd5b600061247d83836000611f6c565b9050600073ffffffffffffffffffffffffffffffffffffffff168173ffffffffffffffffffffffffffffffffffffffff16146124f15760006040517f73c6ac6e0000000000000000000000000000000000000000000000000000000081526004016124e89190613047565b60405180910390fd5b505050565b600073ffffffffffffffffffffffffffffffffffffffff168273ffffffffffffffffffffffffffffffffffffffff160361256757816040517f5b08ba1800000000000000000000000000000000000000000000000000000000815260040161255e9190613047565b60405180910390fd5b80600560008573ffffffffffffffffffffffffffffffffffffffff1673ffffffffffffffffffffffffffffffffffffffff16815260200190815260200160002060008473ffffffffffffffffffffffffffffffffffffffff1673ffffffffffffffffffffffffffffffffffffffff16815260200190815260200160002060006101000a81548160ff0219169083151502179055508173ffffffffffffffffffffffffffffffffffffffff168373ffffffffffffffffffffffffffffffffffffffff167f17307eab39ab6107e8899845ad3d59bd9653f200f220920489ca2b5937696c31836040516126589190612ed6565b60405180910390a3505050565b60008373ffffffffffffffffffffffffffffffffffffffff163b1115612816578273ffffffffffffffffffffffffffffffffffffffff1663150b7a026126a9611f52565b8685856040518563ffffffff1660e01b81526004016126cb9493929190613bf3565b6020604051808303816000875af192505050801561270757506040513d601f19601f820116820180604052508101906127049190613c54565b60015b61278b573d8060008114612737576040519150601f19603f3d011682016040523d82523d6000602084013e61273c565b606091505b50600081510361278357836040517f64a0ae9200000000000000000000000000000000000000000000000000000000815260040161277a9190613047565b60405180910390fd5b805181602001fd5b63150b7a0260e01b7bffffffffffffffffffffffffffffffffffffffffffffffffffffffff1916817bffffffffffffffffffffffffffffffffffffffffffffffffffffffff19161461281457836040517f64a0ae9200000000000000000000000000000000000000000000000000000000815260040161280b9190613047565b60405180910390fd5b505b50505050565b606060405180602001604052806000815250905090565b60606000600161284284612bc7565b01905060008167ffffffffffffffff81111561286157612860613399565b5b6040519080825280601f01601f1916602001820160405280156128935781602001600182028036833780820191505090505b509050600082602001820190505b6001156128f6578080600190039150507f3031323334353637383961626364656600000000000000000000000000000000600a86061a8153600a85816128ea576128e96137cd565b5b049450600085036128a1575b819350505050919050565b60006002600083815260200190815260200160002060009054906101000a900473ffffffffffffffffffffffffffffffffffffffff169050919050565b80806129775750600073ffffffffffffffffffffffffffffffffffffffff168273ffffffffffffffffffffffffffffffffffffffff1614155b15612aab57600061298784611e8d565b9050600073ffffffffffffffffffffffffffffffffffffffff168373ffffffffffffffffffffffffffffffffffffffff16141580156129f257508273ffffffffffffffffffffffffffffffffffffffff168173ffffffffffffffffffffffffffffffffffffffff1614155b8015612a055750612a038184611d69565b155b15612a4757826040517fa9fbf51f000000000000000000000000000000000000000000000000000000008152600401612a3e9190613047565b60405180910390fd5b8115612aa957838573ffffffffffffffffffffffffffffffffffffffff168273ffffffffffffffffffffffffffffffffffffffff167f8c5be1e5ebec7d5bd14f71427d1e84f3dd0314c0f7b2291e5b200ac8c7c3b92560405160405180910390a45b505b836004600085815260200190815260200160002060006101000a81548173ffffffffffffffffffffffffffffffffffffffff021916908373ffffffffffffffffffffffffffffffffffffffff16021790555050505050565b612b0e838383612d1a565b612bc257600073ffffffffffffffffffffffffffffffffffffffff168373ffffffffffffffffffffffffffffffffffffffff1603612b8357806040517f7e273289000000000000000000000000000000000000000000000000000000008152600401612b7a9190613130565b60405180910390fd5b81816040517f177e802f000000000000000000000000000000000000000000000000000000008152600401612bb9929190613c81565b60405180910390fd5b505050565b600080600090507a184f03e93ff9f4daa797ed6e38ed64bf6a1f0100000000000000008310612c25577a184f03e93ff9f4daa797ed6e38ed64bf6a1f0100000000000000008381612c1b57612c1a6137cd565b5b0492506040810190505b6d04ee2d6d415b85acef81000000008310612c62576d04ee2d6d415b85acef81000000008381612c5857612c576137cd565b5b0492506020810190505b662386f26fc100008310612c9157662386f26fc100008381612c8757612c866137cd565b5b0492506010810190505b6305f5e1008310612cba576305f5e1008381612cb057612caf6137cd565b5b0492506008810190505b6127108310612cdf576127108381612cd557612cd46137cd565b5b0492506004810190505b60648310612d025760648381612cf857612cf76137cd565b5b0492506002810190505b600a8310612d11576001810190505b80915050919050565b60008073ffffffffffffffffffffffffffffffffffffffff168373ffffffffffffffffffffffffffffffffffffffff1614158015612dd257508273ffffffffffffffffffffffffffffffffffffffff168473ffffffffffffffffffffffffffffffffffffffff161480612d935750612d928484611d69565b5b80612dd157508273ffffffffffffffffffffffffffffffffffffffff16612db983611f15565b73ffffffffffffffffffffffffffffffffffffffff16145b5b90509392505050565b6040518060a0016040528060008152602001600073ffffffffffffffffffffffffffffffffffffffff16815260200160008152602001600081526020016000151581525090565b6000604051905090565b600080fd5b600080fd5b60007fffffffff0000000000000000000000000000000000000000000000000000000082169050919050565b612e6b81612e36565b8114612e7657600080fd5b50565b600081359050612e8881612e62565b92915050565b600060208284031215612ea457612ea3612e2c565b5b6000612eb284828501612e79565b91505092915050565b60008115159050919050565b612ed081612ebb565b82525050565b6000602082019050612eeb6000830184612ec7565b92915050565b600081519050919050565b600082825260208201905092915050565b60005b83811015612f2b578082015181840152602081019050612f10565b60008484015250505050565b6000601f19601f8301169050919050565b6000612f5382612ef1565b612f5d8185612efc565b9350612f6d818560208601612f0d565b612f7681612f37565b840191505092915050565b60006020820190508181036000830152612f9b8184612f48565b905092915050565b6000819050919050565b612fb681612fa3565b8114612fc157600080fd5b50565b600081359050612fd381612fad565b92915050565b600060208284031215612fef57612fee612e2c565b5b6000612ffd84828501612fc4565b91505092915050565b600073ffffffffffffffffffffffffffffffffffffffff82169050919050565b600061303182613006565b9050919050565b61304181613026565b82525050565b600060208201905061305c6000830184613038565b92915050565b61306b81613026565b811461307657600080fd5b50565b60008135905061308881613062565b92915050565b600080604083850312156130a5576130a4612e2c565b5b60006130b385828601613079565b92505060206130c485828601612fc4565b9150509250929050565b6000806000606084860312156130e7576130e6612e2c565b5b60006130f586828701613079565b935050602061310686828701613079565b925050604061311786828701612fc4565b9150509250925092565b61312a81612fa3565b82525050565b60006020820190506131456000830184613121565b92915050565b60006020828403121561316157613160612e2c565b5b600061316f84828501613079565b91505092915050565b600081519050919050565b600082825260208201905092915050565b6000819050602082019050919050565b6131ad81612fa3565b82525050565b6131bc81613026565b82525050565b6131cb81612ebb565b82525050565b60a0820160008201516131e760008501826131a4565b5060208201516131fa60208501826131b3565b50604082015161320d60408501826131a4565b50606082015161322060608501826131a4565b50608082015161323360808501826131c2565b50505050565b600061324583836131d1565b60a08301905092915050565b6000602082019050919050565b600061326982613178565b6132738185613183565b935061327e83613194565b8060005b838110156132af5781516132968882613239565b97506132a183613251565b925050600181019050613282565b5085935050505092915050565b600060208201905081810360008301526132d6818461325e565b905092915050565b6132e781612ebb565b81146132f257600080fd5b50565b600081359050613304816132de565b92915050565b6000806040838503121561332157613320612e2c565b5b600061332f85828601613079565b9250506020613340858286016132f5565b9150509250929050565b600060808201905061335f6000830187613038565b61336c6020830186613121565b6133796040830185613121565b6133866060830184612ec7565b95945050505050565b600080fd5b600080fd5b7f4e487b7100000000000000000000000000000000000000000000000000000000600052604160045260246000fd5b6133d182612f37565b810181811067ffffffffffffffff821117156133f0576133ef613399565b5b80604052505050565b6000613403612e22565b905061340f82826133c8565b919050565b600067ffffffffffffffff82111561342f5761342e613399565b5b61343882612f37565b9050602081019050919050565b82818337600083830152505050565b600061346761346284613414565b6133f9565b90508281526020810184848401111561348357613482613394565b5b61348e848285613445565b509392505050565b600082601f8301126134ab576134aa61338f565b5b81356134bb848260208601613454565b91505092915050565b600080600080608085870312156134de576134dd612e2c565b5b60006134ec87828801613079565b94505060206134fd87828801613079565b935050604061350e87828801612fc4565b925050606085013567ffffffffffffffff81111561352f5761352e612e31565b5b61353b87828801613496565b91505092959194509250565b6000806040838503121561355e5761355d612e2c565b5b600061356c85828601612fc4565b925050602061357d85828601612fc4565b9150509250929050565b6000806040838503121561359e5761359d612e2c565b5b60006135ac85828601613079565b92505060206135bd85828601613079565b9150509250929050565b6000819050919050565b60006135ec6135e76135e284613006565b6135c7565b613006565b9050919050565b60006135fe826135d1565b9050919050565b6000613610826135f3565b9050919050565b61362081613605565b82525050565b600060208201905061363b6000830184613617565b92915050565b7f4e487b7100000000000000000000000000000000000000000000000000000000600052602260045260246000fd5b6000600282049050600182168061368857607f821691505b60208210810361369b5761369a613641565b5b50919050565b60006060820190506136b66000830186613038565b6136c36020830185613121565b6136d06040830184613038565b949350505050565b7f596f7520617265206e6f7420746865206f776e6572206f66207468697320686f60008201527f7573650000000000000000000000000000000000000000000000000000000000602082015250565b6000613734602383612efc565b915061373f826136d8565b604082019050919050565b6000602082019050818103600083015261376381613727565b9050919050565b7f4e487b7100000000000000000000000000000000000000000000000000000000600052601160045260246000fd5b60006137a482612fa3565b91506137af83612fa3565b92508282039050818111156137c7576137c661376a565b5b92915050565b7f4e487b7100000000000000000000000000000000000000000000000000000000600052601260045260246000fd5b600061380782612fa3565b915061381283612fa3565b925082613822576138216137cd565b5b828204905092915050565b600061383882612fa3565b915061384383612fa3565b925082820261385181612fa3565b915082820484148315176138685761386761376a565b5b5092915050565b7f486f757365206973206e6f7420666f722073616c650000000000000000000000600082015250565b60006138a5601583612efc565b91506138b08261386f565b602082019050919050565b600060208201905081810360008301526138d481613898565b9050919050565b60006060820190506138f06000830186613038565b6138fd6020830185613038565b61390a6040830184613121565b949350505050565b600081519050613921816132de565b92915050565b60006020828403121561393d5761393c612e2c565b5b600061394b84828501613912565b91505092915050565b7f496e73756666696369656e74207061796d656e74000000000000000000000000600082015250565b600061398a601483612efc565b915061399582613954565b602082019050919050565b600060208201905081810360008301526139b98161397d565b9050919050565b7f4f6e6c792074686520706c6174666f726d206f776e65722063616e206d696e74600082015250565b60006139f6602083612efc565b9150613a01826139c0565b602082019050919050565b60006020820190508181036000830152613a25816139e9565b9050919050565b6000613a3782612fa3565b91507fffffffffffffffffffffffffffffffffffffffffffffffffffffffffffffffff8203613a6957613a6861376a565b5b600182019050919050565b7f4e487b7100000000000000000000000000000000000000000000000000000000600052603260045260246000fd5b600081905092915050565b6000613ab982612ef1565b613ac38185613aa3565b9350613ad3818560208601612f0d565b80840191505092915050565b6000613aeb8285613aae565b9150613af78284613aae565b91508190509392505050565b7f5072696365206d7573742062652067726561746572207468616e207a65726f00600082015250565b6000613b39601f83612efc565b9150613b4482613b03565b602082019050919050565b60006020820190508181036000830152613b6881613b2c565b9050919050565b7f4e487b7100000000000000000000000000000000000000000000000000000000600052603160045260246000fd5b600081519050919050565b600082825260208201905092915050565b6000613bc582613b9e565b613bcf8185613ba9565b9350613bdf818560208601612f0d565b613be881612f37565b840191505092915050565b6000608082019050613c086000830187613038565b613c156020830186613038565b613c226040830185613121565b8181036060830152613c348184613bba565b905095945050505050565b600081519050613c4e81612e62565b92915050565b600060208284031215613c6a57613c69612e2c565b5b6000613c7884828501613c3f565b91505092915050565b6000604082019050613c966000830185613038565b613ca36020830184613121565b939250505056fea264697066735822122037b1abe359f1f7c7ef42aaf5b0054cb441dc7ee4f0be3322d8bb8cc166dd86ee64736f6c6343000814003360806040523480156200001157600080fd5b506040518060400160405280600881526020017f48544b546f6b656e0000000000000000000000000000000000000000000000008152506040518060400160405280600381526020017f48544b000000000000000000000000000000000000000000000000000000000081525081600390816200008f919062000365565b508060049081620000a1919062000365565b50505033600560006101000a81548173ffffffffffffffffffffffffffffffffffffffff021916908373ffffffffffffffffffffffffffffffffffffffff1602179055506200044c565b600081519050919050565b7f4e487b7100000000000000000000000000000000000000000000000000000000600052604160045260246000fd5b7f4e487b7100000000000000000000000000000000000000000000000000000000600052602260045260246000fd5b600060028204905060018216806200016d57607f821691505b60208210810362000183576200018262000125565b5b50919050565b60008190508160005260206000209050919050565b60006020601f8301049050919050565b600082821b905092915050565b600060088302620001ed7fffffffffffffffffffffffffffffffffffffffffffffffffffffffffffffffff82620001ae565b620001f98683620001ae565b95508019841693508086168417925050509392505050565b6000819050919050565b6000819050919050565b600062000246620002406200023a8462000211565b6200021b565b62000211565b9050919050565b6000819050919050565b620002628362000225565b6200027a62000271826200024d565b848454620001bb565b825550505050565b600090565b6200029162000282565b6200029e81848462000257565b505050565b5b81811015620002c657620002ba60008262000287565b600181019050620002a4565b5050565b601f8211156200031557620002df8162000189565b620002ea846200019e565b81016020851015620002fa578190505b6200031262000309856200019e565b830182620002a3565b50505b505050565b600082821c905092915050565b60006200033a600019846008026200031a565b1980831691505092915050565b600062000355838362000327565b9150826002028217905092915050565b6200037082620000eb565b67ffffffffffffffff8111156200038c576200038b620000f6565b5b62000398825462000154565b620003a5828285620002ca565b600060209050601f831160018114620003dd5760008415620003c8578287015190505b620003d4858262000347565b86555062000444565b601f198416620003ed8662000189565b60005b828110156200041757848901518255600182019150602085019450602081019050620003f0565b8683101562000437578489015162000433601f89168262000327565b8355505b6001600288020188555050505b505050505050565b6114fb806200045c6000396000f3fe6080604052600436106100a75760003560e01c80636c11bcd3116100645780636c11bcd3146101d257806370a08231146101fb57806395d89b4114610238578063a9059cbb14610263578063d0febe4c146102a0578063dd62ed3e146102aa576100a7565b806306fdde03146100ac578063095ea7b3146100d757806318160ddd1461011457806323b872dd1461013f578063313ce5671461017c5780634df8ccb1146101a7575b600080fd5b3480156100b857600080fd5b506100c16102e7565b6040516100ce9190610e04565b60405180910390f35b3480156100e357600080fd5b506100fe60048036038101906100f99190610ebf565b610379565b60405161010b9190610f1a565b60405180910390f35b34801561012057600080fd5b5061012961039c565b6040516101369190610f44565b60405180910390f35b34801561014b57600080fd5b5061016660048036038101906101619190610f5f565b6103a6565b6040516101739190610f1a565b60405180910390f35b34801561018857600080fd5b506101916103d5565b60405161019e9190610fce565b60405180910390f35b3480156101b357600080fd5b506101bc6103de565b6040516101c99190610ff8565b60405180910390f35b3480156101de57600080fd5b506101f960048036038101906101f49190611013565b610404565b005b34801561020757600080fd5b50610222600480360381019061021d9190611040565b6104ec565b60405161022f9190610f44565b60405180910390f35b34801561024457600080fd5b5061024d610534565b60405161025a9190610e04565b60405180910390f35b34801561026f57600080fd5b5061028a60048036038101906102859190610ebf565b6105c6565b6040516102979190610f1a565b60405180910390f35b6102a86105e9565b005b3480156102b657600080fd5b506102d160048036038101906102cc919061106d565b61064b565b6040516102de9190610f44565b60405180910390f35b6060600380546102f6906110dc565b80601f0160208091040260200160405190810160405280929190818152602001828054610322906110dc565b801561036f5780601f106103445761010080835404028352916020019161036f565b820191906000526020600020905b81548152906001019060200180831161035257829003601f168201915b5050505050905090565b6000806103846106d2565b90506103918185856106da565b600191505092915050565b6000600254905090565b6000806103b16106d2565b90506103be8582856106ec565b6103c9858585610780565b60019150509392505050565b60006012905090565b600560009054906101000a900473ffffffffffffffffffffffffffffffffffffffff1681565b8061040e336104ec565b101561044f576040517f08c379a000000000000000000000000000000000000000000000000000000000815260040161044690611159565b60405180910390fd5b6104773361045b6103d5565b600a61046791906112db565b836104729190611326565b610874565b3373ffffffffffffffffffffffffffffffffffffffff166108fc6103e861049c6103d5565b600a6104a891906112db565b846104b39190611326565b6104bd9190611397565b9081150290604051600060405180830381858888f193505050501580156104e8573d6000803e3d6000fd5b5050565b60008060008373ffffffffffffffffffffffffffffffffffffffff1673ffffffffffffffffffffffffffffffffffffffff168152602001908152602001600020549050919050565b606060048054610543906110dc565b80601f016020809104026020016040519081016040528092919081815260200182805461056f906110dc565b80156105bc5780601f10610591576101008083540402835291602001916105bc565b820191906000526020600020905b81548152906001019060200180831161059f57829003601f168201915b5050505050905090565b6000806105d16106d2565b90506105de818585610780565b600191505092915050565b6000341161062c576040517f08c379a00000000000000000000000000000000000000000000000000000000081526004016106239061143a565b60405180910390fd5b60006103e83461063c9190611326565b905061064833826108f6565b50565b6000600160008473ffffffffffffffffffffffffffffffffffffffff1673ffffffffffffffffffffffffffffffffffffffff16815260200190815260200160002060008373ffffffffffffffffffffffffffffffffffffffff1673ffffffffffffffffffffffffffffffffffffffff16815260200190815260200160002054905092915050565b600033905090565b6106e78383836001610978565b505050565b60006106f8848461064b565b90507fffffffffffffffffffffffffffffffffffffffffffffffffffffffffffffffff811461077a578181101561076a578281836040517ffb8f41b20000000000000000000000000000000000000000000000000000000081526004016107619392919061145a565b60405180910390fd5b61077984848484036000610978565b5b50505050565b600073ffffffffffffffffffffffffffffffffffffffff168373ffffffffffffffffffffffffffffffffffffffff16036107f25760006040517f96c6fd1e0000000000000000000000000000000000000000000000000000000081526004016107e99190610ff8565b60405180910390fd5b600073ffffffffffffffffffffffffffffffffffffffff168273ffffffffffffffffffffffffffffffffffffffff16036108645760006040517fec442f0500000000000000000000000000000000000000000000000000000000815260040161085b9190610ff8565b60405180910390fd5b61086f838383610b4f565b505050565b600073ffffffffffffffffffffffffffffffffffffffff168273ffffffffffffffffffffffffffffffffffffffff16036108e65760006040517f96c6fd1e0000000000000000000000000000000000000000000000000000000081526004016108dd9190610ff8565b60405180910390fd5b6108f282600083610b4f565b5050565b600073ffffffffffffffffffffffffffffffffffffffff168273ffffffffffffffffffffffffffffffffffffffff16036109685760006040517fec442f0500000000000000000000000000000000000000000000000000000000815260040161095f9190610ff8565b60405180910390fd5b61097460008383610b4f565b5050565b600073ffffffffffffffffffffffffffffffffffffffff168473ffffffffffffffffffffffffffffffffffffffff16036109ea5760006040517fe602df050000000000000000000000000000000000000000000000000000000081526004016109e19190610ff8565b60405180910390fd5b600073ffffffffffffffffffffffffffffffffffffffff168373ffffffffffffffffffffffffffffffffffffffff1603610a5c5760006040517f94280d62000000000000000000000000000000000000000000000000000000008152600401610a539190610ff8565b60405180910390fd5b81600160008673ffffffffffffffffffffffffffffffffffffffff1673ffffffffffffffffffffffffffffffffffffffff16815260200190815260200160002060008573ffffffffffffffffffffffffffffffffffffffff1673ffffffffffffffffffffffffffffffffffffffff168152602001908152602001600020819055508015610b49578273ffffffffffffffffffffffffffffffffffffffff168473ffffffffffffffffffffffffffffffffffffffff167f8c5be1e5ebec7d5bd14f71427d1e84f3dd0314c0f7b2291e5b200ac8c7c3b92584604051610b409190610f44565b60405180910390a35b50505050565b600073ffffffffffffffffffffffffffffffffffffffff168373ffffffffffffffffffffffffffffffffffffffff1603610ba1578060026000828254610b959190611491565b92505081905550610c74565b60008060008573ffffffffffffffffffffffffffffffffffffffff1673ffffffffffffffffffffffffffffffffffffffff16815260200190815260200160002054905081811015610c2d578381836040517fe450d38c000000000000000000000000000000000000000000000000000000008152600401610c249392919061145a565b60405180910390fd5b8181036000808673ffffffffffffffffffffffffffffffffffffffff1673ffffffffffffffffffffffffffffffffffffffff16815260200190815260200160002081905550505b600073ffffffffffffffffffffffffffffffffffffffff168273ffffffffffffffffffffffffffffffffffffffff1603610cbd5780600260008282540392505081905550610d0a565b806000808473ffffffffffffffffffffffffffffffffffffffff1673ffffffffffffffffffffffffffffffffffffffff168152602001908152602001600020600082825401925050819055505b8173ffffffffffffffffffffffffffffffffffffffff168373ffffffffffffffffffffffffffffffffffffffff167fddf252ad1be2c89b69c2b068fc378daa952ba7f163c4a11628f55a4df523b3ef83604051610d679190610f44565b60405180910390a3505050565b600081519050919050565b600082825260208201905092915050565b60005b83811015610dae578082015181840152602081019050610d93565b60008484015250505050565b6000601f19601f8301169050919050565b6000610dd682610d74565b610de08185610d7f565b9350610df0818560208601610d90565b610df981610dba565b840191505092915050565b60006020820190508181036000830152610e1e8184610dcb565b905092915050565b600080fd5b600073ffffffffffffffffffffffffffffffffffffffff82169050919050565b6000610e5682610e2b565b9050919050565b610e6681610e4b565b8114610e7157600080fd5b50565b600081359050610e8381610e5d565b92915050565b6000819050919050565b610e9c81610e89565b8114610ea757600080fd5b50565b600081359050610eb981610e93565b92915050565b60008060408385031215610ed657610ed5610e26565b5b6000610ee485828601610e74565b9250506020610ef585828601610eaa565b9150509250929050565b60008115159050919050565b610f1481610eff565b82525050565b6000602082019050610f2f6000830184610f0b565b92915050565b610f3e81610e89565b82525050565b6000602082019050610f596000830184610f35565b92915050565b600080600060608486031215610f7857610f77610e26565b5b6000610f8686828701610e74565b9350506020610f9786828701610e74565b9250506040610fa886828701610eaa565b9150509250925092565b600060ff82169050919050565b610fc881610fb2565b82525050565b6000602082019050610fe36000830184610fbf565b92915050565b610ff281610e4b565b82525050565b600060208201905061100d6000830184610fe9565b92915050565b60006020828403121561102957611028610e26565b5b600061103784828501610eaa565b91505092915050565b60006020828403121561105657611055610e26565b5b600061106484828501610e74565b91505092915050565b6000806040838503121561108457611083610e26565b5b600061109285828601610e74565b92505060206110a385828601610e74565b9150509250929050565b7f4e487b7100000000000000000000000000000000000000000000000000000000600052602260045260246000fd5b600060028204905060018216806110f457607f821691505b602082108103611107576111066110ad565b5b50919050565b7f496e73756666696369656e742048544b2062616c616e63650000000000000000600082015250565b6000611143601883610d7f565b915061114e8261110d565b602082019050919050565b6000602082019050818103600083015261117281611136565b9050919050565b7f4e487b7100000000000000000000000000000000000000000000000000000000600052601160045260246000fd5b60008160011c9050919050565b6000808291508390505b60018511156111ff578086048111156111db576111da611179565b5b60018516156111ea5780820291505b80810290506111f8856111a8565b94506111bf565b94509492505050565b60008261121857600190506112d4565b8161122657600090506112d4565b816001811461123c576002811461124657611275565b60019150506112d4565b60ff84111561125857611257611179565b5b8360020a91508482111561126f5761126e611179565b5b506112d4565b5060208310610133831016604e8410600b84101617156112aa5782820a9050838111156112a5576112a4611179565b5b6112d4565b6112b784848460016111b5565b925090508184048111156112ce576112cd611179565b5b81810290505b9392505050565b60006112e682610e89565b91506112f183610fb2565b925061131e7fffffffffffffffffffffffffffffffffffffffffffffffffffffffffffffffff8484611208565b905092915050565b600061133182610e89565b915061133c83610e89565b925082820261134a81610e89565b9150828204841483151761136157611360611179565b5b5092915050565b7f4e487b7100000000000000000000000000000000000000000000000000000000600052601260045260246000fd5b60006113a282610e89565b91506113ad83610e89565b9250826113bd576113bc611368565b5b828204905092915050565b7f45544820616d6f756e74206d7573742062652067726561746572207468616e2060008201527f7a65726f00000000000000000000000000000000000000000000000000000000602082015250565b6000611424602483610d7f565b915061142f826113c8565b604082019050919050565b6000602082019050818103600083015261145381611417565b9050919050565b600060608201905061146f6000830186610fe9565b61147c6020830185610f35565b6114896040830184610f35565b949350505050565b600061149c82610e89565b91506114a783610e89565b92508282019050808211156114bf576114be611179565b5b9291505056fea2646970667358221220312e2ce66a693425d75ade21deb051b969eb1ba4288cefc44fa7f7d3c182808564736f6c63430008140033",
  "linkReferences": {},
  "deployedLinkReferences": {}
}