{
  "_format": "hh-sol-artifact-1",
  "contractName": "HTKToken",
  "sourceName": "contracts/HTKToken.sol",
  "abi": [
    {
      "inputs": [],
      "stateMutability": "nonpayable",
      "type": "constructor"
    },
    {
      "inputs": [
        {
          "internalType": "address",
          "name": "spender",
          "type": "address"
        },
        {
          "internalType": "uint256",
          "name": "allowance",
          "type": "uint256"
        },
        {
          "internalType": "uint256",
          "name": "needed",
          "type": "uint256"
        }
      ],
      "name": "ERC20InsufficientAllowance",
      "type": "error"
    },
    {
      "inputs": [
        {
          "internalType": "address",
          "name": "sender",
          "type": "address"
        },
        {
          "internalType": "uint256",
          "name": "balance",
          "type": "uint256"
        },
        {
          "internalType": "uint256",
          "name": "needed",
          "type": "uint256"
        }
      ],
      "name": "ERC20InsufficientBalance",
      "type": "error"
    },
    {
      "inputs": [
        {
          "internalType": "address",
          "name": "approver",
          "type": "address"
        }
      ],
      "name": "ERC20InvalidApprover",
      "type": "error"
    },
    {
      "inputs": [
        {
          "internalType": "address",
          "name": "receiver",
          "type": "address"
        }
      ],
      "name": "ERC20InvalidReceiver",
      "type": "error"
    },
    {
      "inputs": [
        {
          "internalType": "address",
          "name": "sender",
          "type": "address"
        }
      ],
      "name": "ERC20InvalidSender",
      "type": "error"
    },
    {
      "inputs": [
        {
          "internalType": "address",
          "name": "spender",
          "type": "address"
        }
      ],
      "name": "ERC20InvalidSpender",
      "type": "error"
    },
    {
      "anonymous": false,
      "inputs": [
        {
          "indexed": true,
          "internalType": "address",
          "name": "owner",
          "type": "address"
        },
        {
          "indexed": true,
          "internalType": "address",
          "name": "spender",
          "type": "address"
        },
        {
          "indexed": false,
          "internalType": "uint256",
          "name": "value",
          "type": "uint256"
        }
      ],
      "name": "Approval",
      "type": "event"
    },
    {
      "anonymous": false,
      "inputs": [
        {
          "indexed": true,
          "internalType": "address",
          "name": "from",
          "type": "address"
        },
        {
          "indexed": true,
          "internalType": "address",
          "name": "to",
          "type": "address"
        },
        {
          "indexed": false,
          "internalType": "uint256",
          "name": "value",
          "type": "uint256"
        }
      ],
      "name": "Transfer",
      "type": "event"
    },
    {
      "inputs": [
        {
          "internalType": "address",
          "name": "owner",
          "type": "address"
        },
        {
          "internalType": "address",
          "name": "spender",
          "type": "address"
        }
      ],
      "name": "allowance",
      "outputs": [
        {
          "internalType": "uint256",
          "name": "",
          "type": "uint256"
        }
      ],
      "stateMutability": "view",
      "type": "function"
    },
    {
      "inputs": [
        {
          "internalType": "address",
          "name": "spender",
          "type": "address"
        },
        {
          "internalType": "uint256",
          "name": "value",
          "type": "uint256"
        }
      ],
      "name": "approve",
      "outputs": [
        {
          "internalType": "bool",
          "name": "",
          "type": "bool"
        }
      ],
      "stateMutability": "nonpayable",
      "type": "function"
    },
    {
      "inputs": [
        {
          "internalType": "address",
          "name": "account",
          "type": "address"
        }
      ],
      "name": "balanceOf",
      "outputs": [
        {
          "internalType": "uint256",
          "name": "",
          "type": "uint256"
        }
      ],
      "stateMutability": "view",
      "type": "function"
    },
    {
      "inputs": [],
      "name": "buyTokens",
      "outputs": [],
      "stateMutability": "payable",
      "type": "function"
    },
    {
      "inputs": [],
      "name": "decimals",
      "outputs": [
        {
          "internalType": "uint8",
          "name": "",
          "type": "uint8"
        }
      ],
      "stateMutability": "view",
      "type": "function"
    },
    {
      "inputs": [],
      "name": "name",
      "outputs": [
        {
          "internalType": "string",
          "name": "",
          "type": "string"
        }
      ],
      "stateMutability": "view",
      "type": "function"
    },
    {
      "inputs": [],
      "name": "platformOwner",
      "outputs": [
        {
          "internalType": "address",
          "name": "",
          "type": "address"
        }
      ],
      "stateMutability": "view",
      "type": "function"
    },
    {
      "inputs": [
        {
          "internalType": "uint256",
          "name": "amount",
          "type": "uint256"
        }
      ],
      "name": "sellTokens",
      "outputs": [],
      "stateMutability": "nonpayable",
      "type": "function"
    },
    {
      "inputs": [],
      "name": "symbol",
      "outputs": [
        {
          "internalType": "string",
          "name": "",
          "type": "string"
        }
      ],
      "stateMutability": "view",
      "type": "function"
    },
    {
      "inputs": [],
      "name": "totalSupply",
      "outputs": [
        {
          "internalType": "uint256",
          "name": "",
          "type": "uint256"
        }
      ],
      "stateMutability": "view",
      "type": "function"
    },
    {
      "inputs": [
        {
          "internalType": "address",
          "name": "to",
          "type": "address"
        },
        {
          "internalType": "uint256",
          "name": "value",
          "type": "uint256"
        }
      ],
      "name": "transfer",
      "outputs": [
        {
          "internalType": "bool",
          "name": "",
          "type": "bool"
        }
      ],
      "stateMutability": "nonpayable",
      "type": "function"
    },
    {
      "inputs": [
        {
          "internalType": "address",
          "name": "from",
          "type": "address"
        },
        {
          "internalType": "address",
          "name": "to",
          "type": "address"
        },
        {
          "internalType": "uint256",
          "name": "value",
          "type": "uint256"
        }
      ],
      "name": "transferFrom",
      "outputs": [
        {
          "internalType": "bool",
          "name": "",
          "type": "bool"
        }
      ],
      "stateMutability": "nonpayable",
      "type": "function"
    }
  ],
  "bytecode": "0x60806040523480156200001157600080fd5b506040518060400160405280600881526020017f48544b546f6b656e0000000000000000000000000000000000000000000000008152506040518060400160405280600381526020017f48544b000000000000000000000000000000000000000000000000000000000081525081600390816200008f91906200068c565b508060049081620000a191906200068c565b50505033600560006101000a81548173ffffffffffffffffffffffffffffffffffffffff021916908373ffffffffffffffffffffffffffffffffffffffff16021790555062000146600560009054906101000a900473ffffffffffffffffffffffffffffffffffffffff166200011c6200014c60201b60201c565b600a6200012a919062000903565b620f42406200013a919062000954565b6200015560201b60201c565b62000aa7565b60006012905090565b600073ffffffffffffffffffffffffffffffffffffffff168273ffffffffffffffffffffffffffffffffffffffff1603620001ca5760006040517fec442f05000000000000000000000000000000000000000000000000000000008152600401620001c19190620009e4565b60405180910390fd5b620001de60008383620001e260201b60201c565b5050565b600073ffffffffffffffffffffffffffffffffffffffff168373ffffffffffffffffffffffffffffffffffffffff1603620002385780600260008282546200022b919062000a01565b925050819055506200030e565b60008060008573ffffffffffffffffffffffffffffffffffffffff1673ffffffffffffffffffffffffffffffffffffffff16815260200190815260200160002054905081811015620002c7578381836040517fe450d38c000000000000000000000000000000000000000000000000000000008152600401620002be9392919062000a4d565b60405180910390fd5b8181036000808673ffffffffffffffffffffffffffffffffffffffff1673ffffffffffffffffffffffffffffffffffffffff16815260200190815260200160002081905550505b600073ffffffffffffffffffffffffffffffffffffffff168273ffffffffffffffffffffffffffffffffffffffff1603620003595780600260008282540392505081905550620003a6565b806000808473ffffffffffffffffffffffffffffffffffffffff1673ffffffffffffffffffffffffffffffffffffffff168152602001908152602001600020600082825401925050819055505b8173ffffffffffffffffffffffffffffffffffffffff168373ffffffffffffffffffffffffffffffffffffffff167fddf252ad1be2c89b69c2b068fc378daa952ba7f163c4a11628f55a4df523b3ef8360405162000405919062000a8a565b60405180910390a3505050565b600081519050919050565b7f4e487b7100000000000000000000000000000000000000000000000000000000600052604160045260246000fd5b7f4e487b7100000000000000000000000000000000000000000000000000000000600052602260045260246000fd5b600060028204905060018216806200049457607f821691505b602082108103620004aa57620004a96200044c565b5b50919050565b60008190508160005260206000209050919050565b60006020601f8301049050919050565b600082821b905092915050565b600060088302620005147fffffffffffffffffffffffffffffffffffffffffffffffffffffffffffffffff82620004d5565b620005208683620004d5565b95508019841693508086168417925050509392505050565b6000819050919050565b6000819050919050565b60006200056d62000567620005618462000538565b62000542565b62000538565b9050919050565b6000819050919050565b62000589836200054c565b620005a1620005988262000574565b848454620004e2565b825550505050565b600090565b620005b8620005a9565b620005c58184846200057e565b505050565b5b81811015620005ed57620005e1600082620005ae565b600181019050620005cb565b5050565b601f8211156200063c576200060681620004b0565b6200061184620004c5565b8101602085101562000621578190505b620006396200063085620004c5565b830182620005ca565b50505b505050565b600082821c905092915050565b6000620006616000198460080262000641565b1980831691505092915050565b60006200067c83836200064e565b9150826002028217905092915050565b620006978262000412565b67ffffffffffffffff811115620006b357620006b26200041d565b5b620006bf82546200047b565b620006cc828285620005f1565b600060209050601f831160018114620007045760008415620006ef578287015190505b620006fb85826200066e565b8655506200076b565b601f1984166200071486620004b0565b60005b828110156200073e5784890151825560018201915060208501945060208101905062000717565b868310156200075e57848901516200075a601f8916826200064e565b8355505b6001600288020188555050505b505050505050565b7f4e487b7100000000000000000000000000000000000000000000000000000000600052601160045260246000fd5b60008160011c9050919050565b6000808291508390505b60018511156200080157808604811115620007d957620007d862000773565b5b6001851615620007e95780820291505b8081029050620007f985620007a2565b9450620007b9565b94509492505050565b6000826200081c5760019050620008ef565b816200082c5760009050620008ef565b8160018114620008455760028114620008505762000886565b6001915050620008ef565b60ff84111562000865576200086462000773565b5b8360020a9150848211156200087f576200087e62000773565b5b50620008ef565b5060208310610133831016604e8410600b8410161715620008c05782820a905083811115620008ba57620008b962000773565b5b620008ef565b620008cf8484846001620007af565b92509050818404811115620008e957620008e862000773565b5b81810290505b9392505050565b600060ff82169050919050565b6000620009108262000538565b91506200091d83620008f6565b92506200094c7fffffffffffffffffffffffffffffffffffffffffffffffffffffffffffffffff84846200080a565b905092915050565b6000620009618262000538565b91506200096e8362000538565b92508282026200097e8162000538565b9150828204841483151762000998576200099762000773565b5b5092915050565b600073ffffffffffffffffffffffffffffffffffffffff82169050919050565b6000620009cc826200099f565b9050919050565b620009de81620009bf565b82525050565b6000602082019050620009fb6000830184620009d3565b92915050565b600062000a0e8262000538565b915062000a1b8362000538565b925082820190508082111562000a365762000a3562000773565b5b92915050565b62000a478162000538565b82525050565b600060608201905062000a646000830186620009d3565b62000a73602083018562000a3c565b62000a82604083018462000a3c565b949350505050565b600060208201905062000aa1600083018462000a3c565b92915050565b6114e38062000ab76000396000f3fe6080604052600436106100a75760003560e01c80636c11bcd3116100645780636c11bcd3146101d257806370a08231146101fb57806395d89b4114610238578063a9059cbb14610263578063d0febe4c146102a0578063dd62ed3e146102aa576100a7565b806306fdde03146100ac578063095ea7b3146100d757806318160ddd1461011457806323b872dd1461013f578063313ce5671461017c5780634df8ccb1146101a7575b600080fd5b3480156100b857600080fd5b506100c16102e7565b6040516100ce9190610dec565b60405180910390f35b3480156100e357600080fd5b506100fe60048036038101906100f99190610ea7565b610379565b60405161010b9190610f02565b60405180910390f35b34801561012057600080fd5b5061012961039c565b6040516101369190610f2c565b60405180910390f35b34801561014b57600080fd5b5061016660048036038101906101619190610f47565b6103a6565b6040516101739190610f02565b60405180910390f35b34801561018857600080fd5b506101916103d5565b60405161019e9190610fb6565b60405180910390f35b3480156101b357600080fd5b506101bc6103de565b6040516101c99190610fe0565b60405180910390f35b3480156101de57600080fd5b506101f960048036038101906101f49190610ffb565b610404565b005b34801561020757600080fd5b50610222600480360381019061021d9190611028565b6104d4565b60405161022f9190610f2c565b60405180910390f35b34801561024457600080fd5b5061024d61051c565b60405161025a9190610dec565b60405180910390f35b34801561026f57600080fd5b5061028a60048036038101906102859190610ea7565b6105ae565b6040516102979190610f02565b60405180910390f35b6102a86105d1565b005b3480156102b657600080fd5b506102d160048036038101906102cc9190611055565b610633565b6040516102de9190610f2c565b60405180910390f35b6060600380546102f6906110c4565b80601f0160208091040260200160405190810160405280929190818152602001828054610322906110c4565b801561036f5780601f106103445761010080835404028352916020019161036f565b820191906000526020600020905b81548152906001019060200180831161035257829003601f168201915b5050505050905090565b6000806103846106ba565b90506103918185856106c2565b600191505092915050565b6000600254905090565b6000806103b16106ba565b90506103be8582856106d4565b6103c9858585610768565b60019150509392505050565b60006012905090565b600560009054906101000a900473ffffffffffffffffffffffffffffffffffffffff1681565b8061040e336104d4565b101561044f576040517f08c379a000000000000000000000000000000000000000000000000000000000815260040161044690611141565b60405180910390fd5b60006103e88261045f91906111bf565b905061046b338361085c565b3373ffffffffffffffffffffffffffffffffffffffff166108fc61048d6103d5565b600a6104999190611323565b836104a4919061136e565b9081150290604051600060405180830381858888f193505050501580156104cf573d6000803e3d6000fd5b505050565b60008060008373ffffffffffffffffffffffffffffffffffffffff1673ffffffffffffffffffffffffffffffffffffffff168152602001908152602001600020549050919050565b60606004805461052b906110c4565b80601f0160208091040260200160405190810160405280929190818152602001828054610557906110c4565b80156105a45780601f10610579576101008083540402835291602001916105a4565b820191906000526020600020905b81548152906001019060200180831161058757829003601f168201915b5050505050905090565b6000806105b96106ba565b90506105c6818585610768565b600191505092915050565b60003411610614576040517f08c379a000000000000000000000000000000000000000000000000000000000815260040161060b90611422565b60405180910390fd5b60006103e834610624919061136e565b905061063033826108de565b50565b6000600160008473ffffffffffffffffffffffffffffffffffffffff1673ffffffffffffffffffffffffffffffffffffffff16815260200190815260200160002060008373ffffffffffffffffffffffffffffffffffffffff1673ffffffffffffffffffffffffffffffffffffffff16815260200190815260200160002054905092915050565b600033905090565b6106cf8383836001610960565b505050565b60006106e08484610633565b90507fffffffffffffffffffffffffffffffffffffffffffffffffffffffffffffffff81146107625781811015610752578281836040517ffb8f41b200000000000000000000000000000000000000000000000000000000815260040161074993929190611442565b60405180910390fd5b61076184848484036000610960565b5b50505050565b600073ffffffffffffffffffffffffffffffffffffffff168373ffffffffffffffffffffffffffffffffffffffff16036107da5760006040517f96c6fd1e0000000000000000000000000000000000000000000000000000000081526004016107d19190610fe0565b60405180910390fd5b600073ffffffffffffffffffffffffffffffffffffffff168273ffffffffffffffffffffffffffffffffffffffff160361084c5760006040517fec442f050000000000000000000000000000000000000000000000000000000081526004016108439190610fe0565b60405180910390fd5b610857838383610b37565b505050565b600073ffffffffffffffffffffffffffffffffffffffff168273ffffffffffffffffffffffffffffffffffffffff16036108ce5760006040517f96c6fd1e0000000000000000000000000000000000000000000000000000000081526004016108c59190610fe0565b60405180910390fd5b6108da82600083610b37565b5050565b600073ffffffffffffffffffffffffffffffffffffffff168273ffffffffffffffffffffffffffffffffffffffff16036109505760006040517fec442f050000000000000000000000000000000000000000000000000000000081526004016109479190610fe0565b60405180910390fd5b61095c60008383610b37565b5050565b600073ffffffffffffffffffffffffffffffffffffffff168473ffffffffffffffffffffffffffffffffffffffff16036109d25760006040517fe602df050000000000000000000000000000000000000000000000000000000081526004016109c99190610fe0565b60405180910390fd5b600073ffffffffffffffffffffffffffffffffffffffff168373ffffffffffffffffffffffffffffffffffffffff1603610a445760006040517f94280d62000000000000000000000000000000000000000000000000000000008152600401610a3b9190610fe0565b60405180910390fd5b81600160008673ffffffffffffffffffffffffffffffffffffffff1673ffffffffffffffffffffffffffffffffffffffff16815260200190815260200160002060008573ffffffffffffffffffffffffffffffffffffffff1673ffffffffffffffffffffffffffffffffffffffff168152602001908152602001600020819055508015610b31578273ffffffffffffffffffffffffffffffffffffffff168473ffffffffffffffffffffffffffffffffffffffff167f8c5be1e5ebec7d5bd14f71427d1e84f3dd0314c0f7b2291e5b200ac8c7c3b92584604051610b289190610f2c565b60405180910390a35b50505050565b600073ffffffffffffffffffffffffffffffffffffffff168373ffffffffffffffffffffffffffffffffffffffff1603610b89578060026000828254610b7d9190611479565b92505081905550610c5c565b60008060008573ffffffffffffffffffffffffffffffffffffffff1673ffffffffffffffffffffffffffffffffffffffff16815260200190815260200160002054905081811015610c15578381836040517fe450d38c000000000000000000000000000000000000000000000000000000008152600401610c0c93929190611442565b60405180910390fd5b8181036000808673ffffffffffffffffffffffffffffffffffffffff1673ffffffffffffffffffffffffffffffffffffffff16815260200190815260200160002081905550505b600073ffffffffffffffffffffffffffffffffffffffff168273ffffffffffffffffffffffffffffffffffffffff1603610ca55780600260008282540392505081905550610cf2565b806000808473ffffffffffffffffffffffffffffffffffffffff1673ffffffffffffffffffffffffffffffffffffffff168152602001908152602001600020600082825401925050819055505b8173ffffffffffffffffffffffffffffffffffffffff168373ffffffffffffffffffffffffffffffffffffffff167fddf252ad1be2c89b69c2b068fc378daa952ba7f163c4a11628f55a4df523b3ef83604051610d4f9190610f2c565b60405180910390a3505050565b600081519050919050565b600082825260208201905092915050565b60005b83811015610d96578082015181840152602081019050610d7b565b60008484015250505050565b6000601f19601f8301169050919050565b6000610dbe82610d5c565b610dc88185610d67565b9350610dd8818560208601610d78565b610de181610da2565b840191505092915050565b60006020820190508181036000830152610e068184610db3565b905092915050565b600080fd5b600073ffffffffffffffffffffffffffffffffffffffff82169050919050565b6000610e3e82610e13565b9050919050565b610e4e81610e33565b8114610e5957600080fd5b50565b600081359050610e6b81610e45565b92915050565b6000819050919050565b610e8481610e71565b8114610e8f57600080fd5b50565b600081359050610ea181610e7b565b92915050565b60008060408385031215610ebe57610ebd610e0e565b5b6000610ecc85828601610e5c565b9250506020610edd85828601610e92565b9150509250929050565b60008115159050919050565b610efc81610ee7565b82525050565b6000602082019050610f176000830184610ef3565b92915050565b610f2681610e71565b82525050565b6000602082019050610f416000830184610f1d565b92915050565b600080600060608486031215610f6057610f5f610e0e565b5b6000610f6e86828701610e5c565b9350506020610f7f86828701610e5c565b9250506040610f9086828701610e92565b9150509250925092565b600060ff82169050919050565b610fb081610f9a565b82525050565b6000602082019050610fcb6000830184610fa7565b92915050565b610fda81610e33565b82525050565b6000602082019050610ff56000830184610fd1565b92915050565b60006020828403121561101157611010610e0e565b5b600061101f84828501610e92565b91505092915050565b60006020828403121561103e5761103d610e0e565b5b600061104c84828501610e5c565b91505092915050565b6000806040838503121561106c5761106b610e0e565b5b600061107a85828601610e5c565b925050602061108b85828601610e5c565b9150509250929050565b7f4e487b7100000000000000000000000000000000000000000000000000000000600052602260045260246000fd5b600060028204905060018216806110dc57607f821691505b6020821081036110ef576110ee611095565b5b50919050565b7f496e73756666696369656e742048544b2062616c616e63650000000000000000600082015250565b600061112b601883610d67565b9150611136826110f5565b602082019050919050565b6000602082019050818103600083015261115a8161111e565b9050919050565b7f4e487b7100000000000000000000000000000000000000000000000000000000600052601260045260246000fd5b7f4e487b7100000000000000000000000000000000000000000000000000000000600052601160045260246000fd5b60006111ca82610e71565b91506111d583610e71565b9250826111e5576111e4611161565b5b828204905092915050565b60008160011c9050919050565b6000808291508390505b60018511156112475780860481111561122357611222611190565b5b60018516156112325780820291505b8081029050611240856111f0565b9450611207565b94509492505050565b600082611260576001905061131c565b8161126e576000905061131c565b8160018114611284576002811461128e576112bd565b600191505061131c565b60ff8411156112a05761129f611190565b5b8360020a9150848211156112b7576112b6611190565b5b5061131c565b5060208310610133831016604e8410600b84101617156112f25782820a9050838111156112ed576112ec611190565b5b61131c565b6112ff84848460016111fd565b9250905081840481111561131657611315611190565b5b81810290505b9392505050565b600061132e82610e71565b915061133983610f9a565b92506113667fffffffffffffffffffffffffffffffffffffffffffffffffffffffffffffffff8484611250565b905092915050565b600061137982610e71565b915061138483610e71565b925082820261139281610e71565b915082820484148315176113a9576113a8611190565b5b5092915050565b7f45544820616d6f756e74206d7573742062652067726561746572207468616e2060008201527f7a65726f00000000000000000000000000000000000000000000000000000000602082015250565b600061140c602483610d67565b9150611417826113b0565b604082019050919050565b6000602082019050818103600083015261143b816113ff565b9050919050565b60006060820190506114576000830186610fd1565b6114646020830185610f1d565b6114716040830184610f1d565b949350505050565b600061148482610e71565b915061148f83610e71565b92508282019050808211156114a7576114a6611190565b5b9291505056fea264697066735822122061041b14a7e7e68d1a44930821e712046ffb3111123e5c6387177b1f86d2190e64736f6c63430008140033",
  "linkReferences": {},
  "deployedLinkReferences": {}
}