{
  "_format": "hh-sol-artifact-1",
  "contractName": "HTKToken",
  "sourceName": "contracts/HTKToken.sol",
  "abi": [
    {
      "inputs": [],
      "stateMutability": "nonpayable",
      "type": "constructor"
    },
    {
      "inputs": [
        {
          "internalType": "address",
          "name": "spender",
          "type": "address"
        },
        {
          "internalType": "uint256",
          "name": "allowance",
          "type": "uint256"
        },
        {
          "internalType": "uint256",
          "name": "needed",
          "type": "uint256"
        }
      ],
      "name": "ERC20InsufficientAllowance",
      "type": "error"
    },
    {
      "inputs": [
        {
          "internalType": "address",
          "name": "sender",
          "type": "address"
        },
        {
          "internalType": "uint256",
          "name": "balance",
          "type": "uint256"
        },
        {
          "internalType": "uint256",
          "name": "needed",
          "type": "uint256"
        }
      ],
      "name": "ERC20InsufficientBalance",
      "type": "error"
    },
    {
      "inputs": [
        {
          "internalType": "address",
          "name": "approver",
          "type": "address"
        }
      ],
      "name": "ERC20InvalidApprover",
      "type": "error"
    },
    {
      "inputs": [
        {
          "internalType": "address",
          "name": "receiver",
          "type": "address"
        }
      ],
      "name": "ERC20InvalidReceiver",
      "type": "error"
    },
    {
      "inputs": [
        {
          "internalType": "address",
          "name": "sender",
          "type": "address"
        }
      ],
      "name": "ERC20InvalidSender",
      "type": "error"
    },
    {
      "inputs": [
        {
          "internalType": "address",
          "name": "spender",
          "type": "address"
        }
      ],
      "name": "ERC20InvalidSpender",
      "type": "error"
    },
    {
      "anonymous": false,
      "inputs": [
        {
          "indexed": true,
          "internalType": "address",
          "name": "owner",
          "type": "address"
        },
        {
          "indexed": true,
          "internalType": "address",
          "name": "spender",
          "type": "address"
        },
        {
          "indexed": false,
          "internalType": "uint256",
          "name": "value",
          "type": "uint256"
        }
      ],
      "name": "Approval",
      "type": "event"
    },
    {
      "anonymous": false,
      "inputs": [
        {
          "indexed": true,
          "internalType": "address",
          "name": "from",
          "type": "address"
        },
        {
          "indexed": true,
          "internalType": "address",
          "name": "to",
          "type": "address"
        },
        {
          "indexed": false,
          "internalType": "uint256",
          "name": "value",
          "type": "uint256"
        }
      ],
      "name": "Transfer",
      "type": "event"
    },
    {
      "inputs": [
        {
          "internalType": "address",
          "name": "owner",
          "type": "address"
        },
        {
          "internalType": "address",
          "name": "spender",
          "type": "address"
        }
      ],
      "name": "allowance",
      "outputs": [
        {
          "internalType": "uint256",
          "name": "",
          "type": "uint256"
        }
      ],
      "stateMutability": "view",
      "type": "function"
    },
    {
      "inputs": [
        {
          "internalType": "address",
          "name": "spender",
          "type": "address"
        },
        {
          "internalType": "uint256",
          "name": "value",
          "type": "uint256"
        }
      ],
      "name": "approve",
      "outputs": [
        {
          "internalType": "bool",
          "name": "",
          "type": "bool"
        }
      ],
      "stateMutability": "nonpayable",
      "type": "function"
    },
    {
      "inputs": [
        {
          "internalType": "address",
          "name": "account",
          "type": "address"
        }
      ],
      "name": "balanceOf",
      "outputs": [
        {
          "internalType": "uint256",
          "name": "",
          "type": "uint256"
        }
      ],
      "stateMutability": "view",
      "type": "function"
    },
    {
      "inputs": [],
      "name": "buyTokens",
      "outputs": [],
      "stateMutability": "payable",
      "type": "function"
    },
    {
      "inputs": [],
      "name": "decimals",
      "outputs": [
        {
          "internalType": "uint8",
          "name": "",
          "type": "uint8"
        }
      ],
      "stateMutability": "view",
      "type": "function"
    },
    {
      "inputs": [],
      "name": "name",
      "outputs": [
        {
          "internalType": "string",
          "name": "",
          "type": "string"
        }
      ],
      "stateMutability": "view",
      "type": "function"
    },
    {
      "inputs": [],
      "name": "platformOwner",
      "outputs": [
        {
          "internalType": "address",
          "name": "",
          "type": "address"
        }
      ],
      "stateMutability": "view",
      "type": "function"
    },
    {
      "inputs": [
        {
          "internalType": "uint256",
          "name": "amount",
          "type": "uint256"
        }
      ],
      "name": "sellTokens",
      "outputs": [],
      "stateMutability": "nonpayable",
      "type": "function"
    },
    {
      "inputs": [],
      "name": "symbol",
      "outputs": [
        {
          "internalType": "string",
          "name": "",
          "type": "string"
        }
      ],
      "stateMutability": "view",
      "type": "function"
    },
    {
      "inputs": [],
      "name": "totalSupply",
      "outputs": [
        {
          "internalType": "uint256",
          "name": "",
          "type": "uint256"
        }
      ],
      "stateMutability": "view",
      "type": "function"
    },
    {
      "inputs": [
        {
          "internalType": "address",
          "name": "to",
          "type": "address"
        },
        {
          "internalType": "uint256",
          "name": "value",
          "type": "uint256"
        }
      ],
      "name": "transfer",
      "outputs": [
        {
          "internalType": "bool",
          "name": "",
          "type": "bool"
        }
      ],
      "stateMutability": "nonpayable",
      "type": "function"
    },
    {
      "inputs": [
        {
          "internalType": "address",
          "name": "from",
          "type": "address"
        },
        {
          "internalType": "address",
          "name": "to",
          "type": "address"
        },
        {
          "internalType": "uint256",
          "name": "value",
          "type": "uint256"
        }
      ],
      "name": "transferFrom",
      "outputs": [
        {
          "internalType": "bool",
          "name": "",
          "type": "bool"
        }
      ],
      "stateMutability": "nonpayable",
      "type": "function"
    }
  ],
  "bytecode": "0x60806040523480156200001157600080fd5b506040518060400160405280600881526020017f48544b546f6b656e0000000000000000000000000000000000000000000000008152506040518060400160405280600381526020017f48544b000000000000000000000000000000000000000000000000000000000081525081600390816200008f919062000365565b508060049081620000a1919062000365565b50505033600560006101000a81548173ffffffffffffffffffffffffffffffffffffffff021916908373ffffffffffffffffffffffffffffffffffffffff1602179055506200044c565b600081519050919050565b7f4e487b7100000000000000000000000000000000000000000000000000000000600052604160045260246000fd5b7f4e487b7100000000000000000000000000000000000000000000000000000000600052602260045260246000fd5b600060028204905060018216806200016d57607f821691505b60208210810362000183576200018262000125565b5b50919050565b60008190508160005260206000209050919050565b60006020601f8301049050919050565b600082821b905092915050565b600060088302620001ed7fffffffffffffffffffffffffffffffffffffffffffffffffffffffffffffffff82620001ae565b620001f98683620001ae565b95508019841693508086168417925050509392505050565b6000819050919050565b6000819050919050565b600062000246620002406200023a8462000211565b6200021b565b62000211565b9050919050565b6000819050919050565b620002628362000225565b6200027a62000271826200024d565b848454620001bb565b825550505050565b600090565b6200029162000282565b6200029e81848462000257565b505050565b5b81811015620002c657620002ba60008262000287565b600181019050620002a4565b5050565b601f8211156200031557620002df8162000189565b620002ea846200019e565b81016020851015620002fa578190505b6200031262000309856200019e565b830182620002a3565b50505b505050565b600082821c905092915050565b60006200033a600019846008026200031a565b1980831691505092915050565b600062000355838362000327565b9150826002028217905092915050565b6200037082620000eb565b67ffffffffffffffff8111156200038c576200038b620000f6565b5b62000398825462000154565b620003a5828285620002ca565b600060209050601f831160018114620003dd5760008415620003c8578287015190505b620003d4858262000347565b86555062000444565b601f198416620003ed8662000189565b60005b828110156200041757848901518255600182019150602085019450602081019050620003f0565b8683101562000437578489015162000433601f89168262000327565b8355505b6001600288020188555050505b505050505050565b6114fb806200045c6000396000f3fe6080604052600436106100a75760003560e01c80636c11bcd3116100645780636c11bcd3146101d257806370a08231146101fb57806395d89b4114610238578063a9059cbb14610263578063d0febe4c146102a0578063dd62ed3e146102aa576100a7565b806306fdde03146100ac578063095ea7b3146100d757806318160ddd1461011457806323b872dd1461013f578063313ce5671461017c5780634df8ccb1146101a7575b600080fd5b3480156100b857600080fd5b506100c16102e7565b6040516100ce9190610e04565b60405180910390f35b3480156100e357600080fd5b506100fe60048036038101906100f99190610ebf565b610379565b60405161010b9190610f1a565b60405180910390f35b34801561012057600080fd5b5061012961039c565b6040516101369190610f44565b60405180910390f35b34801561014b57600080fd5b5061016660048036038101906101619190610f5f565b6103a6565b6040516101739190610f1a565b60405180910390f35b34801561018857600080fd5b506101916103d5565b60405161019e9190610fce565b60405180910390f35b3480156101b357600080fd5b506101bc6103de565b6040516101c99190610ff8565b60405180910390f35b3480156101de57600080fd5b506101f960048036038101906101f49190611013565b610404565b005b34801561020757600080fd5b50610222600480360381019061021d9190611040565b6104ec565b60405161022f9190610f44565b60405180910390f35b34801561024457600080fd5b5061024d610534565b60405161025a9190610e04565b60405180910390f35b34801561026f57600080fd5b5061028a60048036038101906102859190610ebf565b6105c6565b6040516102979190610f1a565b60405180910390f35b6102a86105e9565b005b3480156102b657600080fd5b506102d160048036038101906102cc919061106d565b61064b565b6040516102de9190610f44565b60405180910390f35b6060600380546102f6906110dc565b80601f0160208091040260200160405190810160405280929190818152602001828054610322906110dc565b801561036f5780601f106103445761010080835404028352916020019161036f565b820191906000526020600020905b81548152906001019060200180831161035257829003601f168201915b5050505050905090565b6000806103846106d2565b90506103918185856106da565b600191505092915050565b6000600254905090565b6000806103b16106d2565b90506103be8582856106ec565b6103c9858585610780565b60019150509392505050565b60006012905090565b600560009054906101000a900473ffffffffffffffffffffffffffffffffffffffff1681565b8061040e336104ec565b101561044f576040517f08c379a000000000000000000000000000000000000000000000000000000000815260040161044690611159565b60405180910390fd5b6104773361045b6103d5565b600a61046791906112db565b836104729190611326565b610874565b3373ffffffffffffffffffffffffffffffffffffffff166108fc6103e861049c6103d5565b600a6104a891906112db565b846104b39190611326565b6104bd9190611397565b9081150290604051600060405180830381858888f193505050501580156104e8573d6000803e3d6000fd5b5050565b60008060008373ffffffffffffffffffffffffffffffffffffffff1673ffffffffffffffffffffffffffffffffffffffff168152602001908152602001600020549050919050565b606060048054610543906110dc565b80601f016020809104026020016040519081016040528092919081815260200182805461056f906110dc565b80156105bc5780601f10610591576101008083540402835291602001916105bc565b820191906000526020600020905b81548152906001019060200180831161059f57829003601f168201915b5050505050905090565b6000806105d16106d2565b90506105de818585610780565b600191505092915050565b6000341161062c576040517f08c379a00000000000000000000000000000000000000000000000000000000081526004016106239061143a565b60405180910390fd5b60006103e83461063c9190611326565b905061064833826108f6565b50565b6000600160008473ffffffffffffffffffffffffffffffffffffffff1673ffffffffffffffffffffffffffffffffffffffff16815260200190815260200160002060008373ffffffffffffffffffffffffffffffffffffffff1673ffffffffffffffffffffffffffffffffffffffff16815260200190815260200160002054905092915050565b600033905090565b6106e78383836001610978565b505050565b60006106f8848461064b565b90507fffffffffffffffffffffffffffffffffffffffffffffffffffffffffffffffff811461077a578181101561076a578281836040517ffb8f41b20000000000000000000000000000000000000000000000000000000081526004016107619392919061145a565b60405180910390fd5b61077984848484036000610978565b5b50505050565b600073ffffffffffffffffffffffffffffffffffffffff168373ffffffffffffffffffffffffffffffffffffffff16036107f25760006040517f96c6fd1e0000000000000000000000000000000000000000000000000000000081526004016107e99190610ff8565b60405180910390fd5b600073ffffffffffffffffffffffffffffffffffffffff168273ffffffffffffffffffffffffffffffffffffffff16036108645760006040517fec442f0500000000000000000000000000000000000000000000000000000000815260040161085b9190610ff8565b60405180910390fd5b61086f838383610b4f565b505050565b600073ffffffffffffffffffffffffffffffffffffffff168273ffffffffffffffffffffffffffffffffffffffff16036108e65760006040517f96c6fd1e0000000000000000000000000000000000000000000000000000000081526004016108dd9190610ff8565b60405180910390fd5b6108f282600083610b4f565b5050565b600073ffffffffffffffffffffffffffffffffffffffff168273ffffffffffffffffffffffffffffffffffffffff16036109685760006040517fec442f0500000000000000000000000000000000000000000000000000000000815260040161095f9190610ff8565b60405180910390fd5b61097460008383610b4f565b5050565b600073ffffffffffffffffffffffffffffffffffffffff168473ffffffffffffffffffffffffffffffffffffffff16036109ea5760006040517fe602df050000000000000000000000000000000000000000000000000000000081526004016109e19190610ff8565b60405180910390fd5b600073ffffffffffffffffffffffffffffffffffffffff168373ffffffffffffffffffffffffffffffffffffffff1603610a5c5760006040517f94280d62000000000000000000000000000000000000000000000000000000008152600401610a539190610ff8565b60405180910390fd5b81600160008673ffffffffffffffffffffffffffffffffffffffff1673ffffffffffffffffffffffffffffffffffffffff16815260200190815260200160002060008573ffffffffffffffffffffffffffffffffffffffff1673ffffffffffffffffffffffffffffffffffffffff168152602001908152602001600020819055508015610b49578273ffffffffffffffffffffffffffffffffffffffff168473ffffffffffffffffffffffffffffffffffffffff167f8c5be1e5ebec7d5bd14f71427d1e84f3dd0314c0f7b2291e5b200ac8c7c3b92584604051610b409190610f44565b60405180910390a35b50505050565b600073ffffffffffffffffffffffffffffffffffffffff168373ffffffffffffffffffffffffffffffffffffffff1603610ba1578060026000828254610b959190611491565b92505081905550610c74565b60008060008573ffffffffffffffffffffffffffffffffffffffff1673ffffffffffffffffffffffffffffffffffffffff16815260200190815260200160002054905081811015610c2d578381836040517fe450d38c000000000000000000000000000000000000000000000000000000008152600401610c249392919061145a565b60405180910390fd5b8181036000808673ffffffffffffffffffffffffffffffffffffffff1673ffffffffffffffffffffffffffffffffffffffff16815260200190815260200160002081905550505b600073ffffffffffffffffffffffffffffffffffffffff168273ffffffffffffffffffffffffffffffffffffffff1603610cbd5780600260008282540392505081905550610d0a565b806000808473ffffffffffffffffffffffffffffffffffffffff1673ffffffffffffffffffffffffffffffffffffffff168152602001908152602001600020600082825401925050819055505b8173ffffffffffffffffffffffffffffffffffffffff168373ffffffffffffffffffffffffffffffffffffffff167fddf252ad1be2c89b69c2b068fc378daa952ba7f163c4a11628f55a4df523b3ef83604051610d679190610f44565b60405180910390a3505050565b600081519050919050565b600082825260208201905092915050565b60005b83811015610dae578082015181840152602081019050610d93565b60008484015250505050565b6000601f19601f8301169050919050565b6000610dd682610d74565b610de08185610d7f565b9350610df0818560208601610d90565b610df981610dba565b840191505092915050565b60006020820190508181036000830152610e1e8184610dcb565b905092915050565b600080fd5b600073ffffffffffffffffffffffffffffffffffffffff82169050919050565b6000610e5682610e2b565b9050919050565b610e6681610e4b565b8114610e7157600080fd5b50565b600081359050610e8381610e5d565b92915050565b6000819050919050565b610e9c81610e89565b8114610ea757600080fd5b50565b600081359050610eb981610e93565b92915050565b60008060408385031215610ed657610ed5610e26565b5b6000610ee485828601610e74565b9250506020610ef585828601610eaa565b9150509250929050565b60008115159050919050565b610f1481610eff565b82525050565b6000602082019050610f2f6000830184610f0b565b92915050565b610f3e81610e89565b82525050565b6000602082019050610f596000830184610f35565b92915050565b600080600060608486031215610f7857610f77610e26565b5b6000610f8686828701610e74565b9350506020610f9786828701610e74565b9250506040610fa886828701610eaa565b9150509250925092565b600060ff82169050919050565b610fc881610fb2565b82525050565b6000602082019050610fe36000830184610fbf565b92915050565b610ff281610e4b565b82525050565b600060208201905061100d6000830184610fe9565b92915050565b60006020828403121561102957611028610e26565b5b600061103784828501610eaa565b91505092915050565b60006020828403121561105657611055610e26565b5b600061106484828501610e74565b91505092915050565b6000806040838503121561108457611083610e26565b5b600061109285828601610e74565b92505060206110a385828601610e74565b9150509250929050565b7f4e487b7100000000000000000000000000000000000000000000000000000000600052602260045260246000fd5b600060028204905060018216806110f457607f821691505b602082108103611107576111066110ad565b5b50919050565b7f496e73756666696369656e742048544b2062616c616e63650000000000000000600082015250565b6000611143601883610d7f565b915061114e8261110d565b602082019050919050565b6000602082019050818103600083015261117281611136565b9050919050565b7f4e487b7100000000000000000000000000000000000000000000000000000000600052601160045260246000fd5b60008160011c9050919050565b6000808291508390505b60018511156111ff578086048111156111db576111da611179565b5b60018516156111ea5780820291505b80810290506111f8856111a8565b94506111bf565b94509492505050565b60008261121857600190506112d4565b8161122657600090506112d4565b816001811461123c576002811461124657611275565b60019150506112d4565b60ff84111561125857611257611179565b5b8360020a91508482111561126f5761126e611179565b5b506112d4565b5060208310610133831016604e8410600b84101617156112aa5782820a9050838111156112a5576112a4611179565b5b6112d4565b6112b784848460016111b5565b925090508184048111156112ce576112cd611179565b5b81810290505b9392505050565b60006112e682610e89565b91506112f183610fb2565b925061131e7fffffffffffffffffffffffffffffffffffffffffffffffffffffffffffffffff8484611208565b905092915050565b600061133182610e89565b915061133c83610e89565b925082820261134a81610e89565b9150828204841483151761136157611360611179565b5b5092915050565b7f4e487b7100000000000000000000000000000000000000000000000000000000600052601260045260246000fd5b60006113a282610e89565b91506113ad83610e89565b9250826113bd576113bc611368565b5b828204905092915050565b7f45544820616d6f756e74206d7573742062652067726561746572207468616e2060008201527f7a65726f00000000000000000000000000000000000000000000000000000000602082015250565b6000611424602483610d7f565b915061142f826113c8565b604082019050919050565b6000602082019050818103600083015261145381611417565b9050919050565b600060608201905061146f6000830186610fe9565b61147c6020830185610f35565b6114896040830184610f35565b949350505050565b600061149c82610e89565b91506114a783610e89565b92508282019050808211156114bf576114be611179565b5b9291505056fea2646970667358221220312e2ce66a693425d75ade21deb051b969eb1ba4288cefc44fa7f7d3c182808564736f6c63430008140033",
  "linkReferences": {},
  "deployedLinkReferences": {}
}